{
  "contractName": "HeavyGunner",
  "abi": [
    {
      "inputs": [
        {
          "internalType": "string",
          "name": "baseURI",
          "type": "string"
        }
      ],
      "stateMutability": "nonpayable",
      "type": "constructor"
    },
    {
      "anonymous": false,
      "inputs": [
        {
          "indexed": true,
          "internalType": "address",
          "name": "owner",
          "type": "address"
        },
        {
          "indexed": true,
          "internalType": "address",
          "name": "approved",
          "type": "address"
        },
        {
          "indexed": true,
          "internalType": "uint256",
          "name": "tokenId",
          "type": "uint256"
        }
      ],
      "name": "Approval",
      "type": "event"
    },
    {
      "anonymous": false,
      "inputs": [
        {
          "indexed": true,
          "internalType": "address",
          "name": "owner",
          "type": "address"
        },
        {
          "indexed": true,
          "internalType": "address",
          "name": "operator",
          "type": "address"
        },
        {
          "indexed": false,
          "internalType": "bool",
          "name": "approved",
          "type": "bool"
        }
      ],
      "name": "ApprovalForAll",
      "type": "event"
    },
    {
      "anonymous": false,
      "inputs": [
        {
          "indexed": false,
          "internalType": "uint256",
          "name": "max",
          "type": "uint256"
        }
      ],
      "name": "NewMaxElement",
      "type": "event"
    },
    {
      "anonymous": false,
      "inputs": [
        {
          "indexed": false,
          "internalType": "uint256",
          "name": "price",
          "type": "uint256"
        }
      ],
      "name": "NewPriceEvent",
      "type": "event"
    },
    {
      "anonymous": false,
      "inputs": [
        {
          "indexed": true,
          "internalType": "address",
          "name": "previousOwner",
          "type": "address"
        },
        {
          "indexed": true,
          "internalType": "address",
          "name": "newOwner",
          "type": "address"
        }
      ],
      "name": "OwnershipTransferred",
      "type": "event"
    },
    {
      "anonymous": false,
      "inputs": [
        {
          "indexed": false,
          "internalType": "bool",
          "name": "pause",
          "type": "bool"
        }
      ],
      "name": "PauseEvent",
      "type": "event"
    },
    {
      "anonymous": false,
      "inputs": [
        {
          "indexed": true,
          "internalType": "address",
          "name": "from",
          "type": "address"
        },
        {
          "indexed": true,
          "internalType": "address",
          "name": "to",
          "type": "address"
        },
        {
          "indexed": true,
          "internalType": "uint256",
          "name": "tokenId",
          "type": "uint256"
        }
      ],
      "name": "Transfer",
      "type": "event"
    },
    {
      "anonymous": false,
      "inputs": [
        {
          "indexed": true,
          "internalType": "uint256",
          "name": "id",
          "type": "uint256"
        }
      ],
      "name": "welcomeToDarkForest",
      "type": "event"
    },
    {
      "inputs": [],
      "name": "HIDE_FROM",
      "outputs": [
        {
          "internalType": "uint256",
          "name": "",
          "type": "uint256"
        }
      ],
      "stateMutability": "view",
      "type": "function",
      "constant": true
    },
    {
      "inputs": [],
      "name": "HIDE_TO",
      "outputs": [
        {
          "internalType": "uint256",
          "name": "",
          "type": "uint256"
        }
      ],
      "stateMutability": "view",
      "type": "function",
      "constant": true
    },
    {
      "inputs": [],
      "name": "MAX_ELEMENTS",
      "outputs": [
        {
          "internalType": "uint256",
          "name": "",
          "type": "uint256"
        }
      ],
      "stateMutability": "view",
      "type": "function",
      "constant": true
    },
    {
      "inputs": [],
      "name": "META_REVEAL",
      "outputs": [
        {
          "internalType": "bool",
          "name": "",
          "type": "bool"
        }
      ],
      "stateMutability": "view",
      "type": "function",
      "constant": true
    },
    {
      "inputs": [],
      "name": "PRICE",
      "outputs": [
        {
          "internalType": "uint256",
          "name": "",
          "type": "uint256"
        }
      ],
      "stateMutability": "view",
      "type": "function",
      "constant": true
    },
    {
      "inputs": [],
      "name": "START_AT",
      "outputs": [
        {
          "internalType": "uint256",
          "name": "",
          "type": "uint256"
        }
      ],
      "stateMutability": "view",
      "type": "function",
      "constant": true
    },
    {
      "inputs": [
        {
          "internalType": "address",
          "name": "to",
          "type": "address"
        },
        {
          "internalType": "uint256",
          "name": "tokenId",
          "type": "uint256"
        }
      ],
      "name": "approve",
      "outputs": [],
      "stateMutability": "nonpayable",
      "type": "function"
    },
    {
      "inputs": [
        {
          "internalType": "address",
          "name": "owner",
          "type": "address"
        }
      ],
      "name": "balanceOf",
      "outputs": [
        {
          "internalType": "uint256",
          "name": "",
          "type": "uint256"
        }
      ],
      "stateMutability": "view",
      "type": "function",
      "constant": true
    },
    {
      "inputs": [],
      "name": "baseTokenURI",
      "outputs": [
        {
          "internalType": "string",
          "name": "",
          "type": "string"
        }
      ],
      "stateMutability": "view",
      "type": "function",
      "constant": true
    },
    {
      "inputs": [
        {
          "internalType": "uint256",
          "name": "tokenId",
          "type": "uint256"
        }
      ],
      "name": "getApproved",
      "outputs": [
        {
          "internalType": "address",
          "name": "",
          "type": "address"
        }
      ],
      "stateMutability": "view",
      "type": "function",
      "constant": true
    },
    {
      "inputs": [
        {
          "internalType": "address",
          "name": "owner",
          "type": "address"
        },
        {
          "internalType": "address",
          "name": "operator",
          "type": "address"
        }
      ],
      "name": "isApprovedForAll",
      "outputs": [
        {
          "internalType": "bool",
          "name": "",
          "type": "bool"
        }
      ],
      "stateMutability": "view",
      "type": "function",
      "constant": true
    },
    {
      "inputs": [],
      "name": "name",
      "outputs": [
        {
          "internalType": "string",
          "name": "",
          "type": "string"
        }
      ],
      "stateMutability": "view",
      "type": "function",
      "constant": true
    },
    {
      "inputs": [],
      "name": "owner",
      "outputs": [
        {
          "internalType": "address",
          "name": "",
          "type": "address"
        }
      ],
      "stateMutability": "view",
      "type": "function",
      "constant": true
    },
    {
      "inputs": [
        {
          "internalType": "uint256",
          "name": "tokenId",
          "type": "uint256"
        }
      ],
      "name": "ownerOf",
      "outputs": [
        {
          "internalType": "address",
          "name": "",
          "type": "address"
        }
      ],
      "stateMutability": "view",
      "type": "function",
      "constant": true
    },
    {
      "inputs": [
        {
          "internalType": "uint256",
          "name": "tokenId",
          "type": "uint256"
        }
      ],
      "name": "rawOwnerOf",
      "outputs": [
        {
          "internalType": "address",
          "name": "",
          "type": "address"
        }
      ],
      "stateMutability": "view",
      "type": "function",
      "constant": true
    },
    {
      "inputs": [],
      "name": "renounceOwnership",
      "outputs": [],
      "stateMutability": "nonpayable",
      "type": "function"
    },
    {
      "inputs": [],
      "name": "royaltiesAddress",
      "outputs": [
        {
          "internalType": "address",
          "name": "",
          "type": "address"
        }
      ],
      "stateMutability": "view",
      "type": "function",
      "constant": true
    },
    {
      "inputs": [
        {
          "internalType": "address",
          "name": "from",
          "type": "address"
        },
        {
          "internalType": "address",
          "name": "to",
          "type": "address"
        },
        {
          "internalType": "uint256",
          "name": "tokenId",
          "type": "uint256"
        }
      ],
      "name": "safeTransferFrom",
      "outputs": [],
      "stateMutability": "nonpayable",
      "type": "function"
    },
    {
      "inputs": [
        {
          "internalType": "address",
          "name": "from",
          "type": "address"
        },
        {
          "internalType": "address",
          "name": "to",
          "type": "address"
        },
        {
          "internalType": "uint256",
          "name": "tokenId",
          "type": "uint256"
        },
        {
          "internalType": "bytes",
          "name": "_data",
          "type": "bytes"
        }
      ],
      "name": "safeTransferFrom",
      "outputs": [],
      "stateMutability": "nonpayable",
      "type": "function"
    },
    {
      "inputs": [],
      "name": "sampleTokenURI",
      "outputs": [
        {
          "internalType": "string",
          "name": "",
          "type": "string"
        }
      ],
      "stateMutability": "view",
      "type": "function",
      "constant": true
    },
    {
      "inputs": [
        {
          "internalType": "address",
          "name": "operator",
          "type": "address"
        },
        {
          "internalType": "bool",
          "name": "approved",
          "type": "bool"
        }
      ],
      "name": "setApprovalForAll",
      "outputs": [],
      "stateMutability": "nonpayable",
      "type": "function"
    },
    {
      "inputs": [],
      "name": "symbol",
      "outputs": [
        {
          "internalType": "string",
          "name": "",
          "type": "string"
        }
      ],
      "stateMutability": "view",
      "type": "function",
      "constant": true
    },
    {
      "inputs": [
        {
          "internalType": "uint256",
          "name": "index",
          "type": "uint256"
        }
      ],
      "name": "tokenByIndex",
      "outputs": [
        {
          "internalType": "uint256",
          "name": "",
          "type": "uint256"
        }
      ],
      "stateMutability": "view",
      "type": "function",
      "constant": true
    },
    {
      "inputs": [
        {
          "internalType": "address",
          "name": "owner",
          "type": "address"
        },
        {
          "internalType": "uint256",
          "name": "index",
          "type": "uint256"
        }
      ],
      "name": "tokenOfOwnerByIndex",
      "outputs": [
        {
          "internalType": "uint256",
          "name": "",
          "type": "uint256"
        }
      ],
      "stateMutability": "view",
      "type": "function",
      "constant": true
    },
    {
      "inputs": [],
      "name": "totalSupply",
      "outputs": [
        {
          "internalType": "uint256",
          "name": "",
          "type": "uint256"
        }
      ],
      "stateMutability": "view",
      "type": "function",
      "constant": true
    },
    {
      "inputs": [
        {
          "internalType": "address",
          "name": "from",
          "type": "address"
        },
        {
          "internalType": "address",
          "name": "to",
          "type": "address"
        },
        {
          "internalType": "uint256",
          "name": "tokenId",
          "type": "uint256"
        }
      ],
      "name": "transferFrom",
      "outputs": [],
      "stateMutability": "nonpayable",
      "type": "function"
    },
    {
      "inputs": [
        {
          "internalType": "address",
          "name": "newOwner",
          "type": "address"
        }
      ],
      "name": "transferOwnership",
      "outputs": [],
      "stateMutability": "nonpayable",
      "type": "function"
    },
    {
      "inputs": [
        {
          "internalType": "bytes4",
          "name": "interfaceId",
          "type": "bytes4"
        }
      ],
      "name": "supportsInterface",
      "outputs": [
        {
          "internalType": "bool",
          "name": "",
          "type": "bool"
        }
      ],
      "stateMutability": "view",
      "type": "function",
      "constant": true
    },
    {
      "inputs": [
        {
          "internalType": "string",
          "name": "baseURI",
          "type": "string"
        }
      ],
      "name": "setBaseURI",
      "outputs": [],
      "stateMutability": "nonpayable",
      "type": "function"
    },
    {
      "inputs": [
        {
          "internalType": "string",
          "name": "sampleURI",
          "type": "string"
        }
      ],
      "name": "setSampleURI",
      "outputs": [],
      "stateMutability": "nonpayable",
      "type": "function"
    },
    {
      "inputs": [],
      "name": "totalToken",
      "outputs": [
        {
          "internalType": "uint256",
          "name": "",
          "type": "uint256"
        }
      ],
      "stateMutability": "view",
      "type": "function",
      "constant": true
    },
    {
      "inputs": [
        {
          "internalType": "uint256",
          "name": "tokenId",
          "type": "uint256"
        }
      ],
      "name": "tokenURI",
      "outputs": [
        {
          "internalType": "string",
          "name": "",
          "type": "string"
        }
      ],
      "stateMutability": "view",
      "type": "function",
      "constant": true
    },
    {
      "inputs": [
        {
          "internalType": "uint256",
          "name": "_tokenAmount",
          "type": "uint256"
        }
      ],
      "name": "mint",
      "outputs": [],
      "stateMutability": "payable",
      "type": "function",
      "payable": true
    },
    {
      "inputs": [
        {
          "internalType": "uint256",
          "name": "_count",
          "type": "uint256"
        }
      ],
      "name": "getMintPrice",
      "outputs": [
        {
          "internalType": "uint256",
          "name": "",
          "type": "uint256"
        }
      ],
      "stateMutability": "view",
      "type": "function",
      "constant": true
    },
    {
      "inputs": [
        {
          "internalType": "address",
          "name": "_owner",
          "type": "address"
        }
      ],
      "name": "walletOfOwner",
      "outputs": [
        {
          "internalType": "uint256[]",
          "name": "",
          "type": "uint256[]"
        }
      ],
      "stateMutability": "view",
      "type": "function",
      "constant": true
    },
    {
      "inputs": [
        {
          "internalType": "bool",
          "name": "_pause",
          "type": "bool"
        }
      ],
      "name": "setPause",
      "outputs": [],
      "stateMutability": "nonpayable",
      "type": "function"
    },
    {
      "inputs": [
        {
          "internalType": "uint256",
          "name": "_price",
          "type": "uint256"
        }
      ],
      "name": "setPrice",
      "outputs": [],
      "stateMutability": "nonpayable",
      "type": "function"
    },
    {
      "inputs": [
        {
          "internalType": "uint256",
          "name": "_max",
          "type": "uint256"
        }
      ],
      "name": "setMaxElement",
      "outputs": [],
      "stateMutability": "nonpayable",
      "type": "function"
    },
    {
      "inputs": [
        {
          "internalType": "bool",
          "name": "_reveal",
          "type": "bool"
        },
        {
          "internalType": "uint256",
          "name": "_from",
          "type": "uint256"
        },
        {
          "internalType": "uint256",
          "name": "_to",
          "type": "uint256"
        }
      ],
      "name": "setMetaReveal",
      "outputs": [],
      "stateMutability": "nonpayable",
      "type": "function"
    },
    {
      "inputs": [
        {
          "internalType": "address",
          "name": "_withdrawAddress",
          "type": "address"
        }
      ],
      "name": "withdrawAll",
      "outputs": [],
      "stateMutability": "nonpayable",
      "type": "function"
    },
    {
      "inputs": [
        {
          "internalType": "address[]",
          "name": "_addrs",
          "type": "address[]"
        },
        {
          "internalType": "uint256[]",
          "name": "_tokenAmounts",
          "type": "uint256[]"
        }
      ],
      "name": "giftMint",
      "outputs": [],
      "stateMutability": "nonpayable",
      "type": "function"
    },
    {
      "inputs": [
        {
          "internalType": "address",
          "name": "_royaltiesAddress",
          "type": "address"
        }
      ],
      "name": "setRoyaltiesAddress",
      "outputs": [],
      "stateMutability": "nonpayable",
      "type": "function"
    },
    {
      "inputs": [
        {
          "internalType": "uint256",
          "name": "_royaltiesFees",
          "type": "uint256"
        }
      ],
      "name": "setRoyaltiesFees",
      "outputs": [],
      "stateMutability": "nonpayable",
      "type": "function"
    },
    {
      "inputs": [
        {
          "internalType": "uint256",
          "name": "tokenId",
          "type": "uint256"
        },
        {
          "internalType": "uint256",
          "name": "value",
          "type": "uint256"
        }
      ],
      "name": "royaltyInfo",
      "outputs": [
        {
          "internalType": "address",
          "name": "receiver",
          "type": "address"
        },
        {
          "internalType": "uint256",
          "name": "royaltyAmount",
          "type": "uint256"
        }
      ],
      "stateMutability": "view",
      "type": "function",
      "constant": true
    }
  ],
  "bytecode": "0x60806040526064600c819055668e1bc9bf040000600d55600e8054600160ff1991821681179092556011805490911690556012556013553480156200004357600080fd5b5060405162002f1f38038062002f1f83398101604081905262000066916200028d565b6040518060400160405280600b81526020016a2432b0bb3ca3bab73732b960a91b81525060405180604001604052806002815260200161484760f01b815250620000bf620000b96200010560201b60201c565b62000109565b8151620000d4906001906020850190620001d1565b508051620000ea906002906020840190620001d1565b505050620000fe816200015960201b60201c565b50620003a6565b3390565b600080546001600160a01b038381166001600160a01b0319831681178455604051919092169283917f8be0079c531659141344cd1fd0a4f28419497f9722a3daafe3b4186f6b6457e09190a35050565b6000546001600160a01b03163314620001b85760405162461bcd60e51b815260206004820181905260248201527f4f776e61626c653a2063616c6c6572206973206e6f7420746865206f776e6572604482015260640160405180910390fd5b8051620001cd906010906020840190620001d1565b5050565b828054620001df9062000369565b90600052602060002090601f0160209004810192826200020357600085556200024e565b82601f106200021e57805160ff19168380011785556200024e565b828001600101855582156200024e579182015b828111156200024e57825182559160200191906001019062000231565b506200025c92915062000260565b5090565b5b808211156200025c576000815560010162000261565b634e487b7160e01b600052604160045260246000fd5b60006020808385031215620002a157600080fd5b82516001600160401b0380821115620002b957600080fd5b818501915085601f830112620002ce57600080fd5b815181811115620002e357620002e362000277565b604051601f8201601f19908116603f011681019083821181831017156200030e576200030e62000277565b8160405282815288868487010111156200032757600080fd5b600093505b828410156200034b57848401860151818501870152928501926200032c565b828411156200035d5760008684830101525b98975050505050505050565b600181811c908216806200037e57607f821691505b60208210811415620003a057634e487b7160e01b600052602260045260246000fd5b50919050565b612b6980620003b66000396000f3fe6080604052600436106102675760003560e01c806370a0823111610144578063b8ea3cb0116100b6578063c87b56dd1161007a578063c87b56dd1461072a578063d547cfb71461074a578063dc95c4a71461075f578063e985e9c51461077f578063f2fde38b146107c8578063fa09e630146107e857600080fd5b8063b8ea3cb0146106a5578063bc13a688146106c5578063bedb86fb146106df578063bf7b766d146106ff578063c74270931461071457600080fd5b80638da5cb5b116101085780638da5cb5b146105ff57806391b7f5ed1461061d57806395d89b411461063d578063a0712d6814610652578063a22cb46514610665578063b88d4fde1461068557600080fd5b806370a082311461055e578063715018a61461057e5780637f81be691461059357806389ece941146105c95780638d859f3e146105e957600080fd5b80632f745c59116101dd5780634f6ccce7116101a15780634f6ccce7146104a9578063559e775b146104c957806355f804b3146104e9578063626be567146105095780636352211e1461051e5780636ea5d1781461053e57600080fd5b80632f745c591461040657806332882535146104265780633502a7161461044657806342842e0e1461045c578063438b63001461047c57600080fd5b8063103c4b531161022f578063103c4b531461033d57806312c2449f1461035257806318160ddd146103725780631ec858ec1461039157806323b872dd146103a75780632a55205a146103c757600080fd5b806301ffc9a71461026c57806306fdde03146102a1578063081812fc146102c3578063095ea7b3146102fb578063097f0e3c1461031d575b600080fd5b34801561027857600080fd5b5061028c61028736600461236c565b610808565b60405190151581526020015b60405180910390f35b3480156102ad57600080fd5b506102b6610819565b60405161029891906123e1565b3480156102cf57600080fd5b506102e36102de3660046123f4565b6108ab565b6040516001600160a01b039091168152602001610298565b34801561030757600080fd5b5061031b610316366004612429565b610945565b005b34801561032957600080fd5b5061031b6103383660046123f4565b610a5b565b34801561034957600080fd5b506102b6610a8a565b34801561035e57600080fd5b5061031b61036d366004612463565b610b18565b34801561037e57600080fd5b506009545b604051908152602001610298565b34801561039d57600080fd5b5061038360125481565b3480156103b357600080fd5b5061031b6103c2366004612496565b610b5c565b3480156103d357600080fd5b506103e76103e23660046124d2565b610b8d565b604080516001600160a01b039093168352602083019190915201610298565b34801561041257600080fd5b50610383610421366004612429565b610be0565b34801561043257600080fd5b50600b546102e3906001600160a01b031681565b34801561045257600080fd5b50610383600c5481565b34801561046857600080fd5b5061031b610477366004612496565b610c76565b34801561048857600080fd5b5061049c6104973660046124f4565b610c91565b604051610298919061250f565b3480156104b557600080fd5b506103836104c43660046123f4565b610d33565b3480156104d557600080fd5b506103836104e43660046123f4565b610dc6565b3480156104f557600080fd5b5061031b6105043660046125f2565b610dd6565b34801561051557600080fd5b50610383610e17565b34801561052a57600080fd5b506102e36105393660046123f4565b610e27565b34801561054a57600080fd5b5061031b6105593660046126ca565b610e9e565b34801561056a57600080fd5b506103836105793660046124f4565b610fee565b34801561058a57600080fd5b5061031b611075565b34801561059f57600080fd5b506102e36105ae3660046123f4565b6000908152600360205260409020546001600160a01b031690565b3480156105d557600080fd5b5061031b6105e43660046125f2565b6110ab565b3480156105f557600080fd5b50610383600d5481565b34801561060b57600080fd5b506000546001600160a01b03166102e3565b34801561062957600080fd5b5061031b6106383660046123f4565b6110e8565b34801561064957600080fd5b506102b661114e565b61031b6106603660046123f4565b61115d565b34801561067157600080fd5b5061031b61068036600461278a565b6112c1565b34801561069157600080fd5b5061031b6106a03660046127bd565b611386565b3480156106b157600080fd5b5061031b6106c03660046123f4565b6113b8565b3480156106d157600080fd5b5060115461028c9060ff1681565b3480156106eb57600080fd5b5061031b6106fa366004612839565b611417565b34801561070b57600080fd5b50610383600181565b34801561072057600080fd5b5061038360135481565b34801561073657600080fd5b506102b66107453660046123f4565b611488565b34801561075657600080fd5b506102b661161d565b34801561076b57600080fd5b5061031b61077a3660046124f4565b61162a565b34801561078b57600080fd5b5061028c61079a366004612854565b6001600160a01b03918216600090815260066020908152604080832093909416825291909152205460ff1690565b3480156107d457600080fd5b5061031b6107e33660046124f4565b611675565b3480156107f457600080fd5b5061031b6108033660046124f4565b61170d565b600061081382611797565b92915050565b6060600180546108289061287e565b80601f01602080910402602001604051908101604052809291908181526020018280546108549061287e565b80156108a15780601f10610876576101008083540402835291602001916108a1565b820191906000526020600020905b81548152906001019060200180831161088457829003601f168201915b5050505050905090565b6000818152600360205260408120546001600160a01b03166109295760405162461bcd60e51b815260206004820152602c60248201527f4552433732313a20617070726f76656420717565727920666f72206e6f6e657860448201526b34b9ba32b73a103a37b5b2b760a11b60648201526084015b60405180910390fd5b506000908152600560205260409020546001600160a01b031690565b600061095082610e27565b9050806001600160a01b0316836001600160a01b031614156109be5760405162461bcd60e51b815260206004820152602160248201527f4552433732313a20617070726f76616c20746f2063757272656e74206f776e656044820152603960f91b6064820152608401610920565b336001600160a01b03821614806109da57506109da813361079a565b610a4c5760405162461bcd60e51b815260206004820152603860248201527f4552433732313a20617070726f76652063616c6c6572206973206e6f74206f7760448201527f6e6572206e6f7220617070726f76656420666f7220616c6c00000000000000006064820152608401610920565b610a5683836117bc565b505050565b6000546001600160a01b03163314610a855760405162461bcd60e51b8152600401610920906128b9565b601555565b60148054610a979061287e565b80601f0160208091040260200160405190810160405280929190818152602001828054610ac39061287e565b8015610b105780601f10610ae557610100808354040283529160200191610b10565b820191906000526020600020905b815481529060010190602001808311610af357829003601f168201915b505050505081565b6000546001600160a01b03163314610b425760405162461bcd60e51b8152600401610920906128b9565b6011805460ff191693151593909317909255601255601355565b610b66338261182a565b610b825760405162461bcd60e51b8152600401610920906128ee565b610a56838383611921565b6000808315610bc857600b546015546001600160a01b0390911690606490610bb59086612955565b610bbf919061298a565b91509150610bd9565b5050600b546001600160a01b031660005b9250929050565b6000610beb83610fee565b8210610c4d5760405162461bcd60e51b815260206004820152602b60248201527f455243373231456e756d657261626c653a206f776e657220696e646578206f7560448201526a74206f6620626f756e647360a81b6064820152608401610920565b506001600160a01b03919091166000908152600760209081526040808320938352929052205490565b610a5683838360405180602001604052806000815250611386565b60606000610c9e83610fee565b905060008167ffffffffffffffff811115610cbb57610cbb612553565b604051908082528060200260200182016040528015610ce4578160200160208202803683370190505b50905060005b82811015610d2b57610cfc8582610be0565b828281518110610d0e57610d0e61299e565b602090810291909101015280610d23816129b4565b915050610cea565b509392505050565b6000610d3e60095490565b8210610da15760405162461bcd60e51b815260206004820152602c60248201527f455243373231456e756d657261626c653a20676c6f62616c20696e646578206f60448201526b7574206f6620626f756e647360a01b6064820152608401610920565b60098281548110610db457610db461299e565b90600052602060002001549050919050565b600d546000906108139083611acc565b6000546001600160a01b03163314610e005760405162461bcd60e51b8152600401610920906128b9565b8051610e139060109060208401906122bd565b5050565b6000610e22600f5490565b905090565b6000818152600360205260408120546001600160a01b0316806108135760405162461bcd60e51b815260206004820152602960248201527f4552433732313a206f776e657220717565727920666f72206e6f6e657869737460448201526832b73a103a37b5b2b760b91b6064820152608401610920565b6000546001600160a01b03163314610ec85760405162461bcd60e51b8152600401610920906128b9565b600080610ed3610e17565b905060005b8451811015610f1a57838181518110610ef357610ef361299e565b602002602001015183610f0691906129cf565b925080610f12816129b4565b915050610ed8565b50600c54610f2883836129cf565b1115610f625760405162461bcd60e51b815260206004820152600960248201526813585e081b1a5b5a5d60ba1b6044820152606401610920565b60005b8451811015610fe75760005b848281518110610f8357610f8361299e565b6020026020010151811015610fd45782610f9c816129b4565b935050610fc2868381518110610fb457610fb461299e565b602002602001015184611ad8565b80610fcc816129b4565b915050610f71565b5080610fdf816129b4565b915050610f65565b5050505050565b60006001600160a01b0382166110595760405162461bcd60e51b815260206004820152602a60248201527f4552433732313a2062616c616e636520717565727920666f7220746865207a65604482015269726f206164647265737360b01b6064820152608401610920565b506001600160a01b031660009081526004602052604090205490565b6000546001600160a01b0316331461109f5760405162461bcd60e51b8152600401610920906128b9565b6110a96000611b1f565b565b6000546001600160a01b031633146110d55760405162461bcd60e51b8152600401610920906128b9565b8051610e139060149060208401906122bd565b6000546001600160a01b031633146111125760405162461bcd60e51b8152600401610920906128b9565b600d8190556040518181527f0e4af3870af723022c49a1ebcf7379a14fa7732c2dc92925407b8d219116a26b906020015b60405180910390a150565b6060600280546108289061287e565b600c54611168610e17565b11156111a15760405162461bcd60e51b8152602060048201526008602482015267536f6c646f75742160c01b6044820152606401610920565b600e5460ff16156111e55760405162461bcd60e51b815260206004820152600e60248201526d29b0b632b9903737ba1037b832b760911b6044820152606401610920565b60006111ef610e17565b600c549091506111ff83836129cf565b11156112395760405162461bcd60e51b815260206004820152600960248201526813585e081b1a5b5a5d60ba1b6044820152606401610920565b61124282610dc6565b3410156112855760405162461bcd60e51b815260206004820152601160248201527056616c75652062656c6f7720707269636560781b6044820152606401610920565b3360015b838160ff16116112bb576112a9826112a460ff8416866129cf565b611ad8565b806112b3816129e7565b915050611289565b50505050565b6001600160a01b03821633141561131a5760405162461bcd60e51b815260206004820152601960248201527f4552433732313a20617070726f766520746f2063616c6c6572000000000000006044820152606401610920565b3360008181526006602090815260408083206001600160a01b03871680855290835292819020805460ff191686151590811790915590519081529192917f17307eab39ab6107e8899845ad3d59bd9653f200f220920489ca2b5937696c31910160405180910390a35050565b611390338361182a565b6113ac5760405162461bcd60e51b8152600401610920906128ee565b6112bb84848484611b6f565b6000546001600160a01b031633146113e25760405162461bcd60e51b8152600401610920906128b9565b600c8190556040518181527fc83d13efd20405bd69a6e26fd71d067b31246b9fe9ad2b945536dd1770330d4890602001611143565b6000546001600160a01b031633146114415760405162461bcd60e51b8152600401610920906128b9565b600e805460ff191682151590811790915560405160ff909116151581527f10e1c3fcaff06b68391033547e8f9bb8067d7c4a2e32659b0629153814d242d390602001611143565b6000818152600360205260409020546060906001600160a01b03166115075760405162461bcd60e51b815260206004820152602f60248201527f4552433732314d657461646174613a2055524920717565727920666f72206e6f60448201526e3732bc34b9ba32b73a103a37b5b2b760891b6064820152608401610920565b60115460ff1615801561151c57506012548210155b801561152a57506013548211155b156115c1576014805461153c9061287e565b80601f01602080910402602001604051908101604052809291908181526020018280546115689061287e565b80156115b55780601f1061158a576101008083540402835291602001916115b5565b820191906000526020600020905b81548152906001019060200180831161159857829003601f168201915b50505050509050919050565b60006115cb611ba2565b905060008151116115eb5760405180602001604052806000815250611616565b806115f584611bb1565b604051602001611606929190612a07565b6040516020818303038152906040525b9392505050565b60108054610a979061287e565b6000546001600160a01b031633146116545760405162461bcd60e51b8152600401610920906128b9565b600b80546001600160a01b0319166001600160a01b03831617905550565b50565b6000546001600160a01b0316331461169f5760405162461bcd60e51b8152600401610920906128b9565b6001600160a01b0381166117045760405162461bcd60e51b815260206004820152602660248201527f4f776e61626c653a206e6577206f776e657220697320746865207a65726f206160448201526564647265737360d01b6064820152608401610920565b61167281611b1f565b6000546001600160a01b031633146117375760405162461bcd60e51b8152600401610920906128b9565b6000816001600160a01b03164760405160006040518083038185875af1925050503d8060008114611784576040519150601f19603f3d011682016040523d82523d6000602084013e611789565b606091505b5050905080610e1357600080fd5b60006001600160e01b0319821663152a902d60e11b1480610813575061081382611caf565b600081815260056020526040902080546001600160a01b0319166001600160a01b03841690811790915581906117f182610e27565b6001600160a01b03167f8c5be1e5ebec7d5bd14f71427d1e84f3dd0314c0f7b2291e5b200ac8c7c3b92560405160405180910390a45050565b6000818152600360205260408120546001600160a01b03166118a35760405162461bcd60e51b815260206004820152602c60248201527f4552433732313a206f70657261746f7220717565727920666f72206e6f6e657860448201526b34b9ba32b73a103a37b5b2b760a11b6064820152608401610920565b60006118ae83610e27565b9050806001600160a01b0316846001600160a01b031614806118e95750836001600160a01b03166118de846108ab565b6001600160a01b0316145b8061191957506001600160a01b0380821660009081526006602090815260408083209388168352929052205460ff165b949350505050565b826001600160a01b031661193482610e27565b6001600160a01b03161461199c5760405162461bcd60e51b815260206004820152602960248201527f4552433732313a207472616e73666572206f6620746f6b656e2074686174206960448201526839903737ba1037bbb760b91b6064820152608401610920565b6001600160a01b0382166119fe5760405162461bcd60e51b8152602060048201526024808201527f4552433732313a207472616e7366657220746f20746865207a65726f206164646044820152637265737360e01b6064820152608401610920565b611a09838383611cd4565b611a146000826117bc565b6001600160a01b0383166000908152600460205260408120805460019290611a3d908490612a46565b90915550506001600160a01b0382166000908152600460205260408120805460019290611a6b9084906129cf565b909155505060008181526003602052604080822080546001600160a01b0319166001600160a01b0386811691821790925591518493918716917fddf252ad1be2c89b69c2b068fc378daa952ba7f163c4a11628f55a4df523b3ef91a4505050565b60006116168284612955565b611ae6600f80546001019055565b611af08282611d7d565b60405181907f80bc0d9c005d5af6853a47785017ac73c9237f3a3acae3b26fb622a6629f8a1590600090a25050565b600080546001600160a01b038381166001600160a01b0319831681178455604051919092169283917f8be0079c531659141344cd1fd0a4f28419497f9722a3daafe3b4186f6b6457e09190a35050565b611b7a848484611921565b611b8684848484611d97565b6112bb5760405162461bcd60e51b815260040161092090612a5d565b6060601080546108289061287e565b606081611bd55750506040805180820190915260018152600360fc1b602082015290565b8160005b8115611bff5780611be9816129b4565b9150611bf89050600a8361298a565b9150611bd9565b60008167ffffffffffffffff811115611c1a57611c1a612553565b6040519080825280601f01601f191660200182016040528015611c44576020820181803683370190505b5090505b841561191957611c59600183612a46565b9150611c66600a86612aaf565b611c719060306129cf565b60f81b818381518110611c8657611c8661299e565b60200101906001600160f81b031916908160001a905350611ca8600a8661298a565b9450611c48565b60006001600160e01b0319821663780e9d6360e01b1480610813575061081382611ea4565b611cdf838383611ef4565b600b546001600160a01b031615801590611d0157506001600160a01b03831615155b8015611d1557506001600160a01b0383163b155b15610a5657600b5460405163d54d6ddb60e01b8152600481018390526001600160a01b039091169063d54d6ddb90602401600060405180830381600087803b158015611d6057600080fd5b505af1158015611d74573d6000803e3d6000fd5b50505050505050565b610e13828260405180602001604052806000815250611fac565b60006001600160a01b0384163b15611e9957604051630a85bd0160e11b81526001600160a01b0385169063150b7a0290611ddb903390899088908890600401612ac3565b602060405180830381600087803b158015611df557600080fd5b505af1925050508015611e25575060408051601f3d908101601f19168201909252611e2291810190612b00565b60015b611e7f573d808015611e53576040519150601f19603f3d011682016040523d82523d6000602084013e611e58565b606091505b508051611e775760405162461bcd60e51b815260040161092090612a5d565b805181602001fd5b6001600160e01b031916630a85bd0160e11b149050611919565b506001949350505050565b60006001600160e01b031982166380ac58cd60e01b1480611ed557506001600160e01b03198216635b5e139f60e01b145b8061081357506301ffc9a760e01b6001600160e01b0319831614610813565b6001600160a01b038316611f4f57611f4a81600980546000838152600a60205260408120829055600182018355919091527f6e1540171b6c0c960b71a7020d9f60077f6af931a8bbf590da0223dacf75c7af0155565b611f72565b816001600160a01b0316836001600160a01b031614611f7257611f728382611fdf565b6001600160a01b038216611f8957610a568161207c565b826001600160a01b0316826001600160a01b031614610a5657610a56828261212b565b611fb6838361216f565b611fc36000848484611d97565b610a565760405162461bcd60e51b815260040161092090612a5d565b60006001611fec84610fee565b611ff69190612a46565b600083815260086020526040902054909150808214612049576001600160a01b03841660009081526007602090815260408083208584528252808320548484528184208190558352600890915290208190555b5060009182526008602090815260408084208490556001600160a01b039094168352600781528383209183525290812055565b60095460009061208e90600190612a46565b6000838152600a6020526040812054600980549394509092849081106120b6576120b661299e565b9060005260206000200154905080600983815481106120d7576120d761299e565b6000918252602080832090910192909255828152600a9091526040808220849055858252812055600980548061210f5761210f612b1d565b6001900381819060005260206000200160009055905550505050565b600061213683610fee565b6001600160a01b039093166000908152600760209081526040808320868452825280832085905593825260089052919091209190915550565b6001600160a01b0382166121c55760405162461bcd60e51b815260206004820181905260248201527f4552433732313a206d696e7420746f20746865207a65726f20616464726573736044820152606401610920565b6000818152600360205260409020546001600160a01b03161561222a5760405162461bcd60e51b815260206004820152601c60248201527f4552433732313a20746f6b656e20616c7265616479206d696e746564000000006044820152606401610920565b61223660008383611cd4565b6001600160a01b038216600090815260046020526040812080546001929061225f9084906129cf565b909155505060008181526003602052604080822080546001600160a01b0319166001600160a01b03861690811790915590518392907fddf252ad1be2c89b69c2b068fc378daa952ba7f163c4a11628f55a4df523b3ef908290a45050565b8280546122c99061287e565b90600052602060002090601f0160209004810192826122eb5760008555612331565b82601f1061230457805160ff1916838001178555612331565b82800160010185558215612331579182015b82811115612331578251825591602001919060010190612316565b5061233d929150612341565b5090565b5b8082111561233d5760008155600101612342565b6001600160e01b03198116811461167257600080fd5b60006020828403121561237e57600080fd5b813561161681612356565b60005b838110156123a457818101518382015260200161238c565b838111156112bb5750506000910152565b600081518084526123cd816020860160208601612389565b601f01601f19169290920160200192915050565b60208152600061161660208301846123b5565b60006020828403121561240657600080fd5b5035919050565b80356001600160a01b038116811461242457600080fd5b919050565b6000806040838503121561243c57600080fd5b6124458361240d565b946020939093013593505050565b8035801515811461242457600080fd5b60008060006060848603121561247857600080fd5b61248184612453565b95602085013595506040909401359392505050565b6000806000606084860312156124ab57600080fd5b6124b48461240d565b92506124c26020850161240d565b9150604084013590509250925092565b600080604083850312156124e557600080fd5b50508035926020909101359150565b60006020828403121561250657600080fd5b6116168261240d565b6020808252825182820181905260009190848201906040850190845b818110156125475783518352928401929184019160010161252b565b50909695505050505050565b634e487b7160e01b600052604160045260246000fd5b604051601f8201601f1916810167ffffffffffffffff8111828210171561259257612592612553565b604052919050565b600067ffffffffffffffff8311156125b4576125b4612553565b6125c7601f8401601f1916602001612569565b90508281528383830111156125db57600080fd5b828260208301376000602084830101529392505050565b60006020828403121561260457600080fd5b813567ffffffffffffffff81111561261b57600080fd5b8201601f8101841361262c57600080fd5b6119198482356020840161259a565b600067ffffffffffffffff82111561265557612655612553565b5060051b60200190565b600082601f83011261267057600080fd5b813560206126856126808361263b565b612569565b82815260059290921b840181019181810190868411156126a457600080fd5b8286015b848110156126bf57803583529183019183016126a8565b509695505050505050565b600080604083850312156126dd57600080fd5b823567ffffffffffffffff808211156126f557600080fd5b818501915085601f83011261270957600080fd5b813560206127196126808361263b565b82815260059290921b8401810191818101908984111561273857600080fd5b948201945b8386101561275d5761274e8661240d565b8252948201949082019061273d565b9650508601359250508082111561277357600080fd5b506127808582860161265f565b9150509250929050565b6000806040838503121561279d57600080fd5b6127a68361240d565b91506127b460208401612453565b90509250929050565b600080600080608085870312156127d357600080fd5b6127dc8561240d565b93506127ea6020860161240d565b925060408501359150606085013567ffffffffffffffff81111561280d57600080fd5b8501601f8101871361281e57600080fd5b61282d8782356020840161259a565b91505092959194509250565b60006020828403121561284b57600080fd5b61161682612453565b6000806040838503121561286757600080fd5b6128708361240d565b91506127b46020840161240d565b600181811c9082168061289257607f821691505b602082108114156128b357634e487b7160e01b600052602260045260246000fd5b50919050565b6020808252818101527f4f776e61626c653a2063616c6c6572206973206e6f7420746865206f776e6572604082015260600190565b60208082526031908201527f4552433732313a207472616e736665722063616c6c6572206973206e6f74206f6040820152701ddb995c881b9bdc88185c1c1c9bdd9959607a1b606082015260800190565b634e487b7160e01b600052601160045260246000fd5b600081600019048311821515161561296f5761296f61293f565b500290565b634e487b7160e01b600052601260045260246000fd5b60008261299957612999612974565b500490565b634e487b7160e01b600052603260045260246000fd5b60006000198214156129c8576129c861293f565b5060010190565b600082198211156129e2576129e261293f565b500190565b600060ff821660ff8114156129fe576129fe61293f565b60010192915050565b60008351612a19818460208801612389565b835190830190612a2d818360208801612389565b64173539b7b760d91b9101908152600501949350505050565b600082821015612a5857612a5861293f565b500390565b60208082526032908201527f4552433732313a207472616e7366657220746f206e6f6e20455243373231526560408201527131b2b4bb32b91034b6b83632b6b2b73a32b960711b606082015260800190565b600082612abe57612abe612974565b500690565b6001600160a01b0385811682528416602082015260408101839052608060608201819052600090612af6908301846123b5565b9695505050505050565b600060208284031215612b1257600080fd5b815161161681612356565b634e487b7160e01b600052603160045260246000fdfea26469706673582212206f817ba1db475784687ee0f1bead4bc1838147a9038386450eb05ccc0c8a785464736f6c63430008090033",
  "immutableReferences": {},
  "source": "// SPDX-License-Identifier: MIT\r\npragma solidity ^0.8.6;\r\n\r\nimport \"./ERC721Enumerable.sol\";\r\nimport \"@openzeppelin/contracts/access/Ownable.sol\";\r\nimport \"@openzeppelin/contracts/utils/math/SafeMath.sol\";\r\nimport \"@openzeppelin/contracts/utils/Counters.sol\";\r\nimport \"@openzeppelin/contracts/utils/cryptography/ECDSA.sol\";\r\nimport \"./ERC2981.sol\";\r\nimport \"./RoyaltiesAddon.sol\";\r\n\r\n// @author: Jackson\r\n\r\n// /////////////////////////////////////////////////////////////////////////\r\n//                                                                        //\r\n//          _/                      _/                                    //\r\n//         _/    _/_/_/    _/_/_/  _/  _/      _/_/_/    _/_/    _/_/_/   //\r\n//        _/  _/    _/  _/        _/_/      _/_/      _/    _/  _/    _/  //\r\n// _/    _/  _/    _/  _/        _/  _/        _/_/  _/    _/  _/    _/   //\r\n//  _/_/      _/_/_/    _/_/_/  _/    _/  _/_/_/      _/_/    _/    _/    //\r\n//                                                                        //\r\n//                                                                        //\r\n////////////////////////////////////////////////////////////////////////////\r\ncontract HeavyGunner is Ownable, RoyaltiesAddon, ERC2981 {\r\n    using SafeMath for uint256;\r\n    using Counters for Counters.Counter;\r\n    using Strings for uint256;\r\n\r\n    uint256 public MAX_ELEMENTS = 100;\r\n    uint256 public PRICE = 0.04 ether;\r\n    uint256 public constant START_AT = 1;\r\n\r\n    bool private PAUSE = true;\r\n\r\n    Counters.Counter private _tokenIdTracker;\r\n\r\n    string public baseTokenURI;\r\n\r\n    bool public META_REVEAL = false;\r\n    uint256 public HIDE_FROM = 1;\r\n    uint256 public HIDE_TO = 100;\r\n    string public sampleTokenURI;\r\n\r\n    uint256 private royaltiesFees;\r\n\r\n    event PauseEvent(bool pause);\r\n    event welcomeToDarkForest(uint256 indexed id);\r\n    event NewPriceEvent(uint256 price);\r\n    event NewMaxElement(uint256 max);\r\n\r\n    constructor(string memory baseURI) ERC721(\"HeavyGunner\", \"HG\") {\r\n        setBaseURI(baseURI);\r\n    }\r\n\r\n    function supportsInterface(bytes4 interfaceId)\r\n        public\r\n        view\r\n        virtual\r\n        override(ERC721Enumerable, ERC2981)\r\n        returns (bool)\r\n    {\r\n        return super.supportsInterface(interfaceId);\r\n    }\r\n\r\n    modifier saleIsOpen() {\r\n        require(totalToken() <= MAX_ELEMENTS, \"Soldout!\");\r\n        require(!PAUSE, \"Sales not open\");\r\n        _;\r\n    }\r\n\r\n    function _baseURI() internal view virtual override returns (string memory) {\r\n        return baseTokenURI;\r\n    }\r\n\r\n    function setBaseURI(string memory baseURI) public onlyOwner {\r\n        baseTokenURI = baseURI;\r\n    }\r\n\r\n    function setSampleURI(string memory sampleURI) public onlyOwner {\r\n        sampleTokenURI = sampleURI;\r\n    }\r\n\r\n    function totalToken() public view returns (uint256) {\r\n        return _tokenIdTracker.current();\r\n    }\r\n\r\n    function tokenURI(uint256 tokenId)\r\n        public\r\n        view\r\n        virtual\r\n        override\r\n        returns (string memory)\r\n    {\r\n        require(\r\n            _exists(tokenId),\r\n            \"ERC721Metadata: URI query for nonexistent token\"\r\n        );\r\n\r\n        if (!META_REVEAL && tokenId >= HIDE_FROM && tokenId <= HIDE_TO)\r\n            return sampleTokenURI;\r\n\r\n        string memory baseURI = _baseURI();\r\n        return\r\n            bytes(baseURI).length > 0\r\n                ? string(abi.encodePacked(baseURI, tokenId.toString(), \".json\"))\r\n                : \"\";\r\n    }\r\n\r\n    function mint(uint256 _tokenAmount) public payable saleIsOpen {\r\n        uint256 total = totalToken();\r\n        // require(_tokenAmount <= 20, \"Max limit\");\r\n        require(total + _tokenAmount <= MAX_ELEMENTS, \"Max limit\");\r\n        require(msg.value >= getMintPrice(_tokenAmount), \"Value below price\");\r\n\r\n        address wallet = _msgSender();\r\n        for (uint8 i = 1; i <= _tokenAmount; i++) {\r\n            _mintAnElement(wallet, total + i);\r\n        }\r\n    }\r\n\r\n    function _mintAnElement(address _to, uint256 _tokenId) private {\r\n        _tokenIdTracker.increment();\r\n        _safeMint(_to, _tokenId);\r\n\r\n        emit welcomeToDarkForest(_tokenId);\r\n    }\r\n\r\n    function getMintPrice(uint256 _count) public view returns (uint256) {\r\n        return PRICE.mul(_count);\r\n    }\r\n\r\n    function walletOfOwner(address _owner)\r\n        external\r\n        view\r\n        returns (uint256[] memory)\r\n    {\r\n        uint256 tokenCount = balanceOf(_owner);\r\n\r\n        uint256[] memory tokensId = new uint256[](tokenCount);\r\n        for (uint256 i = 0; i < tokenCount; i++) {\r\n            tokensId[i] = tokenOfOwnerByIndex(_owner, i);\r\n        }\r\n\r\n        return tokensId;\r\n    }\r\n\r\n    function setPause(bool _pause) public onlyOwner {\r\n        PAUSE = _pause;\r\n        emit PauseEvent(PAUSE);\r\n    }\r\n\r\n    function setPrice(uint256 _price) public onlyOwner {\r\n        PRICE = _price;\r\n        emit NewPriceEvent(PRICE);\r\n    }\r\n\r\n    function setMaxElement(uint256 _max) public onlyOwner {\r\n        MAX_ELEMENTS = _max;\r\n        emit NewMaxElement(MAX_ELEMENTS);\r\n    }\r\n\r\n    function setMetaReveal(\r\n        bool _reveal,\r\n        uint256 _from,\r\n        uint256 _to\r\n    ) public onlyOwner {\r\n        META_REVEAL = _reveal;\r\n        HIDE_FROM = _from;\r\n        HIDE_TO = _to;\r\n    }\r\n\r\n    function withdrawAll(address _withdrawAddress) public onlyOwner {\r\n        (bool os, ) = payable(_withdrawAddress).call{\r\n            value: address(this).balance\r\n        }(\"\");\r\n        require(os);\r\n    }\r\n\r\n    function giftMint(address[] memory _addrs, uint256[] memory _tokenAmounts)\r\n        public\r\n        onlyOwner\r\n    {\r\n        uint256 totalQuantity = 0;\r\n        uint256 total = totalToken();\r\n        for (uint256 i = 0; i < _addrs.length; i++) {\r\n            totalQuantity += _tokenAmounts[i];\r\n        }\r\n        require(total + totalQuantity <= MAX_ELEMENTS, \"Max limit\");\r\n        for (uint256 i = 0; i < _addrs.length; i++) {\r\n            for (uint256 j = 0; j < _tokenAmounts[i]; j++) {\r\n                total++;\r\n                _mintAnElement(_addrs[i], total);\r\n            }\r\n        }\r\n    }\r\n\r\n    /// @dev sets royalties address\r\n    /// for royalties addon\r\n    /// for 2981\r\n    function setRoyaltiesAddress(address _royaltiesAddress) public onlyOwner {\r\n        super._setRoyaltiesAddress(_royaltiesAddress);\r\n    }\r\n\r\n    /// @dev sets royalties fees\r\n    function setRoyaltiesFees(uint256 _royaltiesFees) public onlyOwner {\r\n        royaltiesFees = _royaltiesFees;\r\n    }\r\n\r\n    /// @inheritdoc\tIERC2981\r\n    function royaltyInfo(uint256 tokenId, uint256 value)\r\n        external\r\n        view\r\n        override\r\n        returns (address receiver, uint256 royaltyAmount)\r\n    {\r\n        if (tokenId > 0)\r\n            return (royaltiesAddress, (value * royaltiesFees) / 100);\r\n        else return (royaltiesAddress, 0);\r\n    }\r\n}\r\n",
  "sourcePath": "E:\\02_Practice\\03_Learning\\NFT minting test project\\ERC 721A\\contracts\\HeavyGunner.sol",
  "compiler": {
    "name": "solc",
    "version": "0.8.9+commit.e5eed63a.Emscripten.clang"
  },
  "schemaVersion": "3.4.4",
  "updatedAt": "2022-04-28T14:31:04.176Z",
  "networkType": "ethereum",
  "devdoc": {
    "kind": "dev",
    "methods": {
      "approve(address,uint256)": {
        "details": "See {IERC721-approve}."
      },
      "balanceOf(address)": {
        "details": "See {IERC721-balanceOf}."
      },
      "getApproved(uint256)": {
        "details": "See {IERC721-getApproved}."
      },
      "isApprovedForAll(address,address)": {
        "details": "See {IERC721-isApprovedForAll}."
      },
      "name()": {
        "details": "See {IERC721Metadata-name}."
      },
      "owner()": {
        "details": "Returns the address of the current owner."
      },
      "ownerOf(uint256)": {
        "details": "See {IERC721-ownerOf}."
      },
      "rawOwnerOf(uint256)": {
        "details": "Edit for rawOwnerOf token"
      },
      "renounceOwnership()": {
        "details": "Leaves the contract without owner. It will not be possible to call `onlyOwner` functions anymore. Can only be called by the current owner. NOTE: Renouncing ownership will leave the contract without an owner, thereby removing any functionality that is only available to the owner."
      },
      "royaltyInfo(uint256,uint256)": {
        "params": {
          "_tokenId": "- the NFT asset queried for royalty information",
          "_value": "- the sale price of the NFT asset specified by _tokenId"
        },
        "returns": {
          "receiver": "- address of who should be sent the royalty payment",
          "royaltyAmount": "- the royalty payment amount for value sale price"
        }
      },
      "safeTransferFrom(address,address,uint256)": {
        "details": "See {IERC721-safeTransferFrom}."
      },
      "safeTransferFrom(address,address,uint256,bytes)": {
        "details": "See {IERC721-safeTransferFrom}."
      },
      "setApprovalForAll(address,bool)": {
        "details": "See {IERC721-setApprovalForAll}."
      },
      "setRoyaltiesAddress(address)": {
        "details": "sets royalties address for royalties addon for 2981"
      },
      "setRoyaltiesFees(uint256)": {
        "details": "sets royalties fees"
      },
      "symbol()": {
        "details": "See {IERC721Metadata-symbol}."
      },
      "tokenByIndex(uint256)": {
        "details": "See {IERC721Enumerable-tokenByIndex}."
      },
      "tokenOfOwnerByIndex(address,uint256)": {
        "details": "See {IERC721Enumerable-tokenOfOwnerByIndex}."
      },
      "tokenURI(uint256)": {
        "details": "See {IERC721Metadata-tokenURI}."
      },
      "totalSupply()": {
        "details": "See {IERC721Enumerable-totalSupply}."
      },
      "transferFrom(address,address,uint256)": {
        "details": "See {IERC721-transferFrom}."
      },
      "transferOwnership(address)": {
        "details": "Transfers ownership of the contract to a new account (`newOwner`). Can only be called by the current owner."
      }
    },
    "version": 1
  },
  "userdoc": {
    "kind": "user",
    "methods": {},
    "version": 1
  }
}