{
  "contractName": "Royalties",
  "abi": [
    {
      "inputs": [
        {
          "internalType": "address",
          "name": "_tokenFeesAddress",
          "type": "address"
        },
        {
          "internalType": "address",
          "name": "_creatorAddress",
          "type": "address"
        },
        {
          "internalType": "address",
          "name": "_collectionAddress",
          "type": "address"
        },
        {
          "internalType": "uint256",
          "name": "_collectionSize",
          "type": "uint256"
        }
      ],
      "stateMutability": "nonpayable",
      "type": "constructor"
    },
    {
      "anonymous": false,
      "inputs": [
        {
          "indexed": false,
          "internalType": "address",
          "name": "owner",
          "type": "address"
        },
        {
          "indexed": false,
          "internalType": "uint256",
          "name": "amount",
          "type": "uint256"
        },
        {
          "indexed": false,
          "internalType": "uint256",
          "name": "tokenID",
          "type": "uint256"
        }
      ],
      "name": "CommunityClaimed",
      "type": "event"
    },
    {
      "anonymous": false,
      "inputs": [
        {
          "indexed": false,
          "internalType": "uint256",
          "name": "amount",
          "type": "uint256"
        }
      ],
      "name": "CreatorClaimed",
      "type": "event"
    },
    {
      "anonymous": false,
      "inputs": [
        {
          "indexed": true,
          "internalType": "address",
          "name": "previousOwner",
          "type": "address"
        },
        {
          "indexed": true,
          "internalType": "address",
          "name": "newOwner",
          "type": "address"
        }
      ],
      "name": "OwnershipTransferred",
      "type": "event"
    },
    {
      "anonymous": false,
      "inputs": [
        {
          "indexed": false,
          "internalType": "address",
          "name": "collectionAddress",
          "type": "address"
        }
      ],
      "name": "RoyaltiesCreated",
      "type": "event"
    },
    {
      "inputs": [],
      "name": "collectionAddress",
      "outputs": [
        {
          "internalType": "address",
          "name": "",
          "type": "address"
        }
      ],
      "stateMutability": "view",
      "type": "function"
    },
    {
      "inputs": [],
      "name": "collectionSize",
      "outputs": [
        {
          "internalType": "uint256",
          "name": "",
          "type": "uint256"
        }
      ],
      "stateMutability": "view",
      "type": "function"
    },
    {
      "inputs": [],
      "name": "communityClaimed",
      "outputs": [
        {
          "internalType": "uint256",
          "name": "",
          "type": "uint256"
        }
      ],
      "stateMutability": "view",
      "type": "function"
    },
    {
      "inputs": [],
      "name": "communityRoyalties",
      "outputs": [
        {
          "internalType": "uint256",
          "name": "",
          "type": "uint256"
        }
      ],
      "stateMutability": "view",
      "type": "function"
    },
    {
      "inputs": [],
      "name": "creatorAddress",
      "outputs": [
        {
          "internalType": "address",
          "name": "",
          "type": "address"
        }
      ],
      "stateMutability": "view",
      "type": "function"
    },
    {
      "inputs": [],
      "name": "creatorClaimed",
      "outputs": [
        {
          "internalType": "uint256",
          "name": "",
          "type": "uint256"
        }
      ],
      "stateMutability": "view",
      "type": "function"
    },
    {
      "inputs": [],
      "name": "creatorRoyalties",
      "outputs": [
        {
          "internalType": "uint256",
          "name": "",
          "type": "uint256"
        }
      ],
      "stateMutability": "view",
      "type": "function"
    },
    {
      "inputs": [],
      "name": "owner",
      "outputs": [
        {
          "internalType": "address",
          "name": "",
          "type": "address"
        }
      ],
      "stateMutability": "view",
      "type": "function"
    },
    {
      "inputs": [],
      "name": "renounceOwnership",
      "outputs": [],
      "stateMutability": "nonpayable",
      "type": "function"
    },
    {
      "inputs": [],
      "name": "tokenFeesAddress",
      "outputs": [
        {
          "internalType": "address",
          "name": "",
          "type": "address"
        }
      ],
      "stateMutability": "view",
      "type": "function"
    },
    {
      "inputs": [
        {
          "internalType": "address",
          "name": "newOwner",
          "type": "address"
        }
      ],
      "name": "transferOwnership",
      "outputs": [],
      "stateMutability": "nonpayable",
      "type": "function"
    },
    {
      "inputs": [
        {
          "internalType": "address",
          "name": "_tokenFeesAddress",
          "type": "address"
        }
      ],
      "name": "setTokenFeesAddress",
      "outputs": [],
      "stateMutability": "nonpayable",
      "type": "function"
    },
    {
      "inputs": [
        {
          "internalType": "address",
          "name": "_creatorAddress",
          "type": "address"
        }
      ],
      "name": "setCreatorAddress",
      "outputs": [],
      "stateMutability": "nonpayable",
      "type": "function"
    },
    {
      "inputs": [
        {
          "internalType": "address",
          "name": "_collectionAddress",
          "type": "address"
        }
      ],
      "name": "setCollectionAddress",
      "outputs": [],
      "stateMutability": "nonpayable",
      "type": "function"
    },
    {
      "inputs": [
        {
          "internalType": "uint256",
          "name": "_collectionSize",
          "type": "uint256"
        }
      ],
      "name": "setCollectionSize",
      "outputs": [],
      "stateMutability": "nonpayable",
      "type": "function"
    },
    {
      "inputs": [
        {
          "internalType": "uint256",
          "name": "_creatorRoyalties",
          "type": "uint256"
        }
      ],
      "name": "setCreatorRoyalties",
      "outputs": [],
      "stateMutability": "nonpayable",
      "type": "function"
    },
    {
      "inputs": [
        {
          "internalType": "uint256",
          "name": "_communityRoyalties",
          "type": "uint256"
        }
      ],
      "name": "setCommunityRoyalties",
      "outputs": [],
      "stateMutability": "nonpayable",
      "type": "function"
    },
    {
      "inputs": [],
      "name": "getTotalRoyalties",
      "outputs": [
        {
          "internalType": "uint256",
          "name": "",
          "type": "uint256"
        }
      ],
      "stateMutability": "view",
      "type": "function"
    },
    {
      "inputs": [],
      "name": "getRoyalties",
      "outputs": [
        {
          "internalType": "uint256",
          "name": "",
          "type": "uint256"
        },
        {
          "internalType": "uint256",
          "name": "",
          "type": "uint256"
        }
      ],
      "stateMutability": "view",
      "type": "function"
    },
    {
      "inputs": [],
      "name": "getTotalCollected",
      "outputs": [
        {
          "internalType": "uint256",
          "name": "",
          "type": "uint256"
        }
      ],
      "stateMutability": "view",
      "type": "function"
    },
    {
      "inputs": [],
      "name": "getCreatorBalance",
      "outputs": [
        {
          "internalType": "uint256",
          "name": "",
          "type": "uint256"
        }
      ],
      "stateMutability": "view",
      "type": "function"
    },
    {
      "inputs": [],
      "name": "getTokenTotalRoyalties",
      "outputs": [
        {
          "internalType": "uint256",
          "name": "",
          "type": "uint256"
        }
      ],
      "stateMutability": "view",
      "type": "function"
    },
    {
      "inputs": [
        {
          "internalType": "uint256",
          "name": "tokenID",
          "type": "uint256"
        }
      ],
      "name": "getTokenBalance",
      "outputs": [
        {
          "internalType": "uint256",
          "name": "",
          "type": "uint256"
        }
      ],
      "stateMutability": "view",
      "type": "function"
    },
    {
      "inputs": [
        {
          "internalType": "uint256[]",
          "name": "tokenIDs",
          "type": "uint256[]"
        }
      ],
      "name": "getTokensBalance",
      "outputs": [
        {
          "internalType": "uint256",
          "name": "",
          "type": "uint256"
        }
      ],
      "stateMutability": "view",
      "type": "function"
    },
    {
      "inputs": [
        {
          "internalType": "address",
          "name": "account",
          "type": "address"
        }
      ],
      "name": "getAddressClaims",
      "outputs": [
        {
          "internalType": "uint256",
          "name": "",
          "type": "uint256"
        }
      ],
      "stateMutability": "view",
      "type": "function"
    },
    {
      "inputs": [
        {
          "internalType": "uint256",
          "name": "tokenID",
          "type": "uint256"
        }
      ],
      "name": "claimCommunity",
      "outputs": [],
      "stateMutability": "nonpayable",
      "type": "function"
    },
    {
      "inputs": [
        {
          "internalType": "uint256[]",
          "name": "tokenIDs",
          "type": "uint256[]"
        }
      ],
      "name": "claimCommunityBatch",
      "outputs": [],
      "stateMutability": "nonpayable",
      "type": "function"
    },
    {
      "inputs": [],
      "name": "claimCreator",
      "outputs": [],
      "stateMutability": "nonpayable",
      "type": "function"
    }
  ],
  "bytecode": "0x6080604052600060015560006002556002600355600360045561138860055534801561002a57600080fd5b506040516110653803806110658339810160408190526100499161013a565b610052336100ce565b600680546001600160a01b038681166001600160a01b0319928316179092556007805486841690831617905560088054928516929091168217905560058290556040519081527feae5301e1117b31d8f583c0ca4957d496584bbd27289b1428148cc19fe9b73f89060200160405180910390a150505050610185565b600080546001600160a01b038381166001600160a01b0319831681178455604051919092169283917f8be0079c531659141344cd1fd0a4f28419497f9722a3daafe3b4186f6b6457e09190a35050565b80516001600160a01b038116811461013557600080fd5b919050565b6000806000806080858703121561015057600080fd5b6101598561011e565b93506101676020860161011e565b92506101756040860161011e565b6060959095015193969295505050565b610ed1806101946000396000f3fe608060405234801561001057600080fd5b50600436106101c45760003560e01c80639105d748116100f9578063cea5725a11610097578063dca4b8d411610071578063dca4b8d414610371578063e927fc5c14610384578063f2fde38b14610397578063fbe5d87e146103aa57600080fd5b8063cea5725a14610342578063d54d6ddb1461034b578063dbfe34731461035e57600080fd5b8063a4325485116100d3578063a43254851461030c578063a6904aa514610314578063aca8ffe714610327578063b9f5c1551461033a57600080fd5b80639105d748146102d35780639127cc69146102e657806393e7fff5146102f957600080fd5b8063573cbfa711610166578063715018a611610140578063715018a61461029457806381b0eb011461029c57806382db9356146102af5780638da5cb5b146102c257600080fd5b8063573cbfa71461023757806368e8a5c2146102605780636aa003711461026957600080fd5b806333df048e116101a257806333df048e146101f75780633870fa741461021257806345c0f5331461021b5780634d19bb551461022457600080fd5b806301dbeb81146101c9578063040bbca6146101e4578063232adc65146101ed575b600080fd5b6101d16103b2565b6040519081526020015b60405180910390f35b6101d160015481565b6101f5610409565b005b600354600454604080519283526020830191909152016101db565b6101d160035481565b6101d160055481565b6101f5610232366004610bf3565b610562565b6101d1610245366004610bf3565b6001600160a01b03166000908152600a602052604090205490565b6101d160045481565b60085461027c906001600160a01b031681565b6040516001600160a01b0390911681526020016101db565b6101f56105ae565b6101f56102aa366004610c17565b6105e4565b6101f56102bd366004610c30565b610613565b6000546001600160a01b031661027c565b6101d16102e1366004610c17565b610656565b6101f56102f4366004610bf3565b61067d565b6101f5610307366004610c17565b6106c9565b6101d16106f8565b6101f5610322366004610bf3565b610749565b6101f5610335366004610c17565b610795565b6101d1610815565b6101d160025481565b6101f5610359366004610c17565b61082c565b6101d161036c366004610cbb565b6109fb565b60065461027c906001600160a01b031681565b60075461027c906001600160a01b031681565b6101f56103a5366004610bf3565b610a56565b6101d1610af1565b6000806103bd610815565b6004546103cb906064610d8f565b6103d59190610dae565b90506005546064826103e5610af1565b6103ef9190610d8f565b6103f99190610dae565b6104039190610dae565b91505090565b6007546001600160a01b031633146104615760405162461bcd60e51b81526020600482015260166024820152754f6e6c792063726561746f722063616e20636c61696d60501b60448201526064015b60405180910390fd5b600061046b6106f8565b9050600081116104b35760405162461bcd60e51b81526020600482015260136024820152724e6f2062616c616e636520746f20636c61696d60681b6044820152606401610458565b60065460075460405163a9059cbb60e01b81526001600160a01b0391821660048201526024810184905291169063a9059cbb90604401600060405180830381600087803b15801561050357600080fd5b505af1158015610517573d6000803e3d6000fd5b50505050806002546105299190610dd0565b6002556040518181527fa54a9eafe4a51022dfe115797bef41eb67659c2da8971c0332e739947dad573e9060200160405180910390a150565b6000546001600160a01b0316331461058c5760405162461bcd60e51b815260040161045890610de8565b600680546001600160a01b0319166001600160a01b0392909216919091179055565b6000546001600160a01b031633146105d85760405162461bcd60e51b815260040161045890610de8565b6105e26000610b8e565b565b6000546001600160a01b0316331461060e5760405162461bcd60e51b815260040161045890610de8565b600355565b60005b818110156106515761063f83838381811061063357610633610e1d565b9050602002013561082c565b8061064981610e33565b915050610616565b505050565b60008181526009602052604081205461066d6103b2565b6106779190610e4e565b92915050565b6000546001600160a01b031633146106a75760405162461bcd60e51b815260040161045890610de8565b600780546001600160a01b0319166001600160a01b0392909216919091179055565b6000546001600160a01b031633146106f35760405162461bcd60e51b815260040161045890610de8565b600455565b600080610703610815565b600354610711906064610d8f565b61071b9190610dae565b905060025460648261072b610af1565b6107359190610d8f565b61073f9190610dae565b6104039190610e4e565b6000546001600160a01b031633146107735760405162461bcd60e51b815260040161045890610de8565b600880546001600160a01b0319166001600160a01b0392909216919091179055565b6000546001600160a01b031633146107bf5760405162461bcd60e51b815260040161045890610de8565b60055481106108105760405162461bcd60e51b815260206004820152601f60248201527f43616e6e6f7420696e63726561736520636f6c6c656374696f6e2073697a65006044820152606401610458565b600555565b60006004546003546108279190610dd0565b905090565b600061083782610656565b905080156109f7576008546040516331a9108f60e11b8152600481018490526000916001600160a01b031690636352211e90602401602060405180830381600087803b15801561088657600080fd5b505af115801561089a573d6000803e3d6000fd5b505050506040513d601f19601f820116820180604052508101906108be9190610e65565b90506001600160a01b038116156106515760065460405163a9059cbb60e01b81526001600160a01b038381166004830152602482018590529091169063a9059cbb90604401600060405180830381600087803b15801561091d57600080fd5b505af1158015610931573d6000803e3d6000fd5b50505060008481526009602052604090205461094f91508390610dd0565b6000848152600960209081526040808320939093556001600160a01b0384168252600a90522054610981908390610dd0565b6001600160a01b0382166000908152600a60205260409020556001546109a8908390610dd0565b600155604080516001600160a01b0383168152602081018490529081018490527fe64d7cc370da10a63026028e833aee5315d94821689aba361b8f345751d1a65f9060600160405180910390a1505b5050565b600080805b8351811015610a4f576000610a2d858381518110610a2057610a20610e1d565b6020026020010151610656565b9050610a398184610dd0565b9250508080610a4790610e33565b915050610a00565b5092915050565b6000546001600160a01b03163314610a805760405162461bcd60e51b815260040161045890610de8565b6001600160a01b038116610ae55760405162461bcd60e51b815260206004820152602660248201527f4f776e61626c653a206e6577206f776e657220697320746865207a65726f206160448201526564647265737360d01b6064820152608401610458565b610aee81610b8e565b50565b6006546040516370a0823160e01b815230600482015260009182916001600160a01b03909116906370a082319060240160206040518083038186803b158015610b3957600080fd5b505afa158015610b4d573d6000803e3d6000fd5b505050506040513d601f19601f82011682018060405250810190610b719190610e82565b905060015460025482610b849190610dd0565b6104039190610dd0565b600080546001600160a01b038381166001600160a01b0319831681178455604051919092169283917f8be0079c531659141344cd1fd0a4f28419497f9722a3daafe3b4186f6b6457e09190a35050565b6001600160a01b0381168114610aee57600080fd5b600060208284031215610c0557600080fd5b8135610c1081610bde565b9392505050565b600060208284031215610c2957600080fd5b5035919050565b60008060208385031215610c4357600080fd5b823567ffffffffffffffff80821115610c5b57600080fd5b818501915085601f830112610c6f57600080fd5b813581811115610c7e57600080fd5b8660208260051b8501011115610c9357600080fd5b60209290920196919550909350505050565b634e487b7160e01b600052604160045260246000fd5b60006020808385031215610cce57600080fd5b823567ffffffffffffffff80821115610ce657600080fd5b818501915085601f830112610cfa57600080fd5b813581811115610d0c57610d0c610ca5565b8060051b604051601f19603f83011681018181108582111715610d3157610d31610ca5565b604052918252848201925083810185019188831115610d4f57600080fd5b938501935b82851015610d6d57843584529385019392850192610d54565b98975050505050505050565b634e487b7160e01b600052601160045260246000fd5b6000816000190483118215151615610da957610da9610d79565b500290565b600082610dcb57634e487b7160e01b600052601260045260246000fd5b500490565b60008219821115610de357610de3610d79565b500190565b6020808252818101527f4f776e61626c653a2063616c6c6572206973206e6f7420746865206f776e6572604082015260600190565b634e487b7160e01b600052603260045260246000fd5b6000600019821415610e4757610e47610d79565b5060010190565b600082821015610e6057610e60610d79565b500390565b600060208284031215610e7757600080fd5b8151610c1081610bde565b600060208284031215610e9457600080fd5b505191905056fea2646970667358221220095d3f87770e017cf48fc3acb08984337e4c0cd31d7f827ebdb4bb8d78413f1a64736f6c63430008090033",
  "immutableReferences": {},
  "source": "// SPDX-License-Identifier: MIT\r\npragma solidity ^0.8.4;\r\n\r\nimport \"@openzeppelin/contracts/access/Ownable.sol\";\r\n\r\ninterface ERC20 {\r\n    function balanceOf(address account) external view returns (uint256);\r\n\r\n    function transfer(address account, uint256 amount) external;\r\n}\r\n\r\ninterface ERC721 {\r\n    function ownerOf(uint256 tokenId) external returns (address);\r\n}\r\n\r\n\r\n/// @title Royalties for Non-Fungible Tokens\r\n/// @dev Contract for the split between community royalties and dev royalties\r\n///\r\ncontract Royalties is Ownable {\r\n    uint256 public communityClaimed = 0;\r\n    uint256 public creatorClaimed = 0;\r\n\r\n    uint256 public creatorRoyalties = 2; // percentage from total NFT price\r\n    uint256 public communityRoyalties = 3; // percentage from total NFT price\r\n\r\n    uint256 public collectionSize = 5000;\r\n\r\n    address public tokenFeesAddress;\r\n    address public creatorAddress;\r\n    address public collectionAddress;\r\n\r\n    mapping(uint256 => uint256) private communityClaims;\r\n\r\n    mapping(address => uint256) private addressClaims;\r\n\r\n    event CommunityClaimed(address owner, uint256 amount, uint256 tokenID);\r\n    event CreatorClaimed(uint256 amount);\r\n    event RoyaltiesCreated(address collectionAddress);\r\n\r\n    constructor(\r\n        address _tokenFeesAddress,\r\n        address _creatorAddress,\r\n        address _collectionAddress,\r\n        uint256 _collectionSize\r\n    ) {\r\n        tokenFeesAddress = _tokenFeesAddress;\r\n        creatorAddress = _creatorAddress;\r\n        collectionAddress = _collectionAddress;\r\n        collectionSize = _collectionSize;\r\n        emit RoyaltiesCreated(collectionAddress);\r\n    }\r\n\r\n    /// @dev set royalties address (weth)\r\n    function setTokenFeesAddress(address _tokenFeesAddress) external onlyOwner {\r\n        tokenFeesAddress = _tokenFeesAddress;\r\n    }\r\n\r\n    /// @dev set creator address, can be another contract\r\n    function setCreatorAddress(address _creatorAddress) external onlyOwner {\r\n        creatorAddress = _creatorAddress;\r\n    }\r\n\r\n    /// @dev set collection address, can be another contract\r\n    function setCollectionAddress(address _collectionAddress) external onlyOwner {\r\n        collectionAddress = _collectionAddress;\r\n    }\r\n\r\n    /// @dev set only smaller collection size, can't increase size\r\n    function setCollectionSize(uint256 _collectionSize) external onlyOwner {\r\n        require(_collectionSize < collectionSize, 'Cannot increase collection size');\r\n        collectionSize = _collectionSize;\r\n    }\r\n\r\n    /// @dev set creator royalties\r\n    function setCreatorRoyalties(uint256 _creatorRoyalties) external onlyOwner {\r\n        creatorRoyalties = _creatorRoyalties;\r\n    }\r\n\r\n    /// @dev set creator royalties\r\n    function setCommunityRoyalties(uint256 _communityRoyalties) external onlyOwner {\r\n        communityRoyalties = _communityRoyalties;\r\n    }\r\n\r\n    /// @dev get total royalties\r\n    /// @return total royalties\r\n    function getTotalRoyalties() public view returns (uint256) {\r\n        return creatorRoyalties + communityRoyalties;\r\n    }\r\n\r\n    /// @dev get royalties split\r\n    /// @return creator roylaties\r\n    /// @return community royalties\r\n    function getRoyalties() public view returns (uint256, uint256) {\r\n        return (creatorRoyalties, communityRoyalties);\r\n    }\r\n\r\n    /// @dev get total collected\r\n    /// @return total collected\r\n    function getTotalCollected() public view returns (uint256) {\r\n        uint256 balance = ERC20(tokenFeesAddress).balanceOf(address(this));\r\n        return balance + creatorClaimed + communityClaimed;\r\n    }\r\n\r\n    /// @dev get creator balance\r\n    /// @return creator total balance\r\n    function getCreatorBalance() public view returns (uint256) {\r\n        uint256 _creatorRoyalties = (creatorRoyalties * 100) / getTotalRoyalties();\r\n        return (getTotalCollected() * _creatorRoyalties) / 100 - creatorClaimed;\r\n    }\r\n\r\n    /// @dev get single token total royalties\r\n    /// @return single token royalties\r\n    function getTokenTotalRoyalties() public view returns (uint256) {\r\n        uint256 _communityRoyalties = (communityRoyalties * 100) /\r\n            getTotalRoyalties();\r\n        return\r\n            ((getTotalCollected() * _communityRoyalties) / 100) /\r\n            collectionSize;\r\n    }\r\n\r\n    /// @dev get single token balance\r\n    /// @return single token balance\r\n    function getTokenBalance(uint256 tokenID) public view returns (uint256) {\r\n        return getTokenTotalRoyalties() - communityClaims[tokenID];\r\n    }\r\n\r\n    /// @dev get token balances for each token from an array of tokenIDs\r\n    function getTokensBalance(uint256[] memory tokenIDs) public view returns (uint256) {\r\n        uint256 totalBalance = 0;\r\n        for (uint256 i = 0; i<tokenIDs.length; i++) {\r\n            uint256 balance = getTokenBalance(tokenIDs[i]);\r\n            totalBalance = (totalBalance + balance);\r\n        }\r\n        return totalBalance;\r\n    }\r\n\r\n    /// @dev get address tot claims\r\n    /// @return address total claims\r\n    function getAddressClaims(address account) public view returns (uint256) {\r\n        return addressClaims[account];\r\n    }\r\n\r\n    /// @dev claim community royalties per token id\r\n    function claimCommunity(uint256 tokenID) public {\r\n        uint256 balance = getTokenBalance(tokenID);\r\n        if (balance > 0) {\r\n            address owner = ERC721(collectionAddress).ownerOf(tokenID);\r\n            if (owner != address(0)) {\r\n                ERC20(tokenFeesAddress).transfer(owner, balance);\r\n                communityClaims[tokenID] = communityClaims[tokenID] + balance;\r\n                addressClaims[owner] = addressClaims[owner] + balance;\r\n                communityClaimed = communityClaimed + balance;\r\n                emit CommunityClaimed(owner, balance, tokenID);\r\n            }\r\n        }\r\n    }\r\n\r\n    /// @dev claim community from an array of tokenIDs\r\n    function claimCommunityBatch(uint256[] calldata tokenIDs) external {\r\n        for (uint256 i=0; i<tokenIDs.length; i++) {\r\n            claimCommunity(tokenIDs[i]);\r\n        }\r\n    }\r\n\r\n    /// @dev claim creator royalties\r\n    function claimCreator() external {\r\n        require(msg.sender == creatorAddress, \"Only creator can claim\");\r\n        uint256 balance = getCreatorBalance();\r\n        require(balance > 0, \"No balance to claim\");\r\n        ERC20(tokenFeesAddress).transfer(creatorAddress, balance);\r\n        creatorClaimed = creatorClaimed + balance;\r\n        emit CreatorClaimed(balance);\r\n    }\r\n}",
  "sourcePath": "E:\\02_Practice\\03_Learning\\NFT minting test project\\ERC 721A\\contracts\\Royalties.sol",
  "compiler": {
    "name": "solc",
    "version": "0.8.9+commit.e5eed63a.Emscripten.clang"
  },
  "schemaVersion": "3.4.4",
  "updatedAt": "2022-04-28T14:27:30.274Z",
  "devdoc": {
    "details": "Contract for the split between community royalties and dev royalties",
    "kind": "dev",
    "methods": {
      "claimCommunity(uint256)": {
        "details": "claim community royalties per token id"
      },
      "claimCommunityBatch(uint256[])": {
        "details": "claim community from an array of tokenIDs"
      },
      "claimCreator()": {
        "details": "claim creator royalties"
      },
      "getAddressClaims(address)": {
        "details": "get address tot claims",
        "returns": {
          "_0": "address total claims"
        }
      },
      "getCreatorBalance()": {
        "details": "get creator balance",
        "returns": {
          "_0": "creator total balance"
        }
      },
      "getRoyalties()": {
        "details": "get royalties split",
        "returns": {
          "_0": "creator roylaties",
          "_1": "community royalties"
        }
      },
      "getTokenBalance(uint256)": {
        "details": "get single token balance",
        "returns": {
          "_0": "single token balance"
        }
      },
      "getTokenTotalRoyalties()": {
        "details": "get single token total royalties",
        "returns": {
          "_0": "single token royalties"
        }
      },
      "getTokensBalance(uint256[])": {
        "details": "get token balances for each token from an array of tokenIDs"
      },
      "getTotalCollected()": {
        "details": "get total collected",
        "returns": {
          "_0": "total collected"
        }
      },
      "getTotalRoyalties()": {
        "details": "get total royalties",
        "returns": {
          "_0": "total royalties"
        }
      },
      "owner()": {
        "details": "Returns the address of the current owner."
      },
      "renounceOwnership()": {
        "details": "Leaves the contract without owner. It will not be possible to call `onlyOwner` functions anymore. Can only be called by the current owner. NOTE: Renouncing ownership will leave the contract without an owner, thereby removing any functionality that is only available to the owner."
      },
      "setCollectionAddress(address)": {
        "details": "set collection address, can be another contract"
      },
      "setCollectionSize(uint256)": {
        "details": "set only smaller collection size, can't increase size"
      },
      "setCommunityRoyalties(uint256)": {
        "details": "set creator royalties"
      },
      "setCreatorAddress(address)": {
        "details": "set creator address, can be another contract"
      },
      "setCreatorRoyalties(uint256)": {
        "details": "set creator royalties"
      },
      "setTokenFeesAddress(address)": {
        "details": "set royalties address (weth)"
      },
      "transferOwnership(address)": {
        "details": "Transfers ownership of the contract to a new account (`newOwner`). Can only be called by the current owner."
      }
    },
    "title": "Royalties for Non-Fungible Tokens",
    "version": 1
  },
  "userdoc": {
    "kind": "user",
    "methods": {},
    "version": 1
  }
}