{
  "contractName": "Yumi",
  "abi": [
    {
      "inputs": [
        {
          "internalType": "string",
          "name": "_hiddenMetadataUri",
          "type": "string"
        }
      ],
      "stateMutability": "nonpayable",
      "type": "constructor"
    },
    {
      "inputs": [],
      "name": "ApprovalCallerNotOwnerNorApproved",
      "type": "error"
    },
    {
      "inputs": [],
      "name": "ApprovalQueryForNonexistentToken",
      "type": "error"
    },
    {
      "inputs": [],
      "name": "ApprovalToCurrentOwner",
      "type": "error"
    },
    {
      "inputs": [],
      "name": "ApproveToCaller",
      "type": "error"
    },
    {
      "inputs": [],
      "name": "BalanceQueryForZeroAddress",
      "type": "error"
    },
    {
      "inputs": [],
      "name": "MintToZeroAddress",
      "type": "error"
    },
    {
      "inputs": [],
      "name": "MintZeroQuantity",
      "type": "error"
    },
    {
      "inputs": [],
      "name": "OwnerQueryForNonexistentToken",
      "type": "error"
    },
    {
      "inputs": [],
      "name": "TransferCallerNotOwnerNorApproved",
      "type": "error"
    },
    {
      "inputs": [],
      "name": "TransferFromIncorrectOwner",
      "type": "error"
    },
    {
      "inputs": [],
      "name": "TransferToNonERC721ReceiverImplementer",
      "type": "error"
    },
    {
      "inputs": [],
      "name": "TransferToZeroAddress",
      "type": "error"
    },
    {
      "anonymous": false,
      "inputs": [
        {
          "indexed": true,
          "internalType": "address",
          "name": "owner",
          "type": "address"
        },
        {
          "indexed": true,
          "internalType": "address",
          "name": "approved",
          "type": "address"
        },
        {
          "indexed": true,
          "internalType": "uint256",
          "name": "tokenId",
          "type": "uint256"
        }
      ],
      "name": "Approval",
      "type": "event"
    },
    {
      "anonymous": false,
      "inputs": [
        {
          "indexed": true,
          "internalType": "address",
          "name": "owner",
          "type": "address"
        },
        {
          "indexed": true,
          "internalType": "address",
          "name": "operator",
          "type": "address"
        },
        {
          "indexed": false,
          "internalType": "bool",
          "name": "approved",
          "type": "bool"
        }
      ],
      "name": "ApprovalForAll",
      "type": "event"
    },
    {
      "anonymous": false,
      "inputs": [
        {
          "indexed": true,
          "internalType": "address",
          "name": "previousOwner",
          "type": "address"
        },
        {
          "indexed": true,
          "internalType": "address",
          "name": "newOwner",
          "type": "address"
        }
      ],
      "name": "OwnershipTransferred",
      "type": "event"
    },
    {
      "anonymous": false,
      "inputs": [
        {
          "indexed": true,
          "internalType": "address",
          "name": "from",
          "type": "address"
        },
        {
          "indexed": true,
          "internalType": "address",
          "name": "to",
          "type": "address"
        },
        {
          "indexed": true,
          "internalType": "uint256",
          "name": "tokenId",
          "type": "uint256"
        }
      ],
      "name": "Transfer",
      "type": "event"
    },
    {
      "inputs": [],
      "name": "_baseTokenURI",
      "outputs": [
        {
          "internalType": "string",
          "name": "",
          "type": "string"
        }
      ],
      "stateMutability": "view",
      "type": "function"
    },
    {
      "inputs": [
        {
          "internalType": "address",
          "name": "to",
          "type": "address"
        },
        {
          "internalType": "uint256",
          "name": "tokenId",
          "type": "uint256"
        }
      ],
      "name": "approve",
      "outputs": [],
      "stateMutability": "nonpayable",
      "type": "function"
    },
    {
      "inputs": [
        {
          "internalType": "address",
          "name": "owner",
          "type": "address"
        }
      ],
      "name": "balanceOf",
      "outputs": [
        {
          "internalType": "uint256",
          "name": "",
          "type": "uint256"
        }
      ],
      "stateMutability": "view",
      "type": "function"
    },
    {
      "inputs": [],
      "name": "cost",
      "outputs": [
        {
          "internalType": "uint256",
          "name": "",
          "type": "uint256"
        }
      ],
      "stateMutability": "view",
      "type": "function"
    },
    {
      "inputs": [
        {
          "internalType": "uint256",
          "name": "tokenId",
          "type": "uint256"
        }
      ],
      "name": "getApproved",
      "outputs": [
        {
          "internalType": "address",
          "name": "",
          "type": "address"
        }
      ],
      "stateMutability": "view",
      "type": "function"
    },
    {
      "inputs": [],
      "name": "hiddenMetadataUri",
      "outputs": [
        {
          "internalType": "string",
          "name": "",
          "type": "string"
        }
      ],
      "stateMutability": "view",
      "type": "function"
    },
    {
      "inputs": [
        {
          "internalType": "address",
          "name": "owner",
          "type": "address"
        },
        {
          "internalType": "address",
          "name": "operator",
          "type": "address"
        }
      ],
      "name": "isApprovedForAll",
      "outputs": [
        {
          "internalType": "bool",
          "name": "",
          "type": "bool"
        }
      ],
      "stateMutability": "view",
      "type": "function"
    },
    {
      "inputs": [],
      "name": "maxMintAmountPerTx",
      "outputs": [
        {
          "internalType": "uint256",
          "name": "",
          "type": "uint256"
        }
      ],
      "stateMutability": "view",
      "type": "function"
    },
    {
      "inputs": [],
      "name": "maxSupply",
      "outputs": [
        {
          "internalType": "uint256",
          "name": "",
          "type": "uint256"
        }
      ],
      "stateMutability": "view",
      "type": "function"
    },
    {
      "inputs": [],
      "name": "name",
      "outputs": [
        {
          "internalType": "string",
          "name": "",
          "type": "string"
        }
      ],
      "stateMutability": "view",
      "type": "function"
    },
    {
      "inputs": [],
      "name": "owner",
      "outputs": [
        {
          "internalType": "address",
          "name": "",
          "type": "address"
        }
      ],
      "stateMutability": "view",
      "type": "function"
    },
    {
      "inputs": [
        {
          "internalType": "uint256",
          "name": "tokenId",
          "type": "uint256"
        }
      ],
      "name": "ownerOf",
      "outputs": [
        {
          "internalType": "address",
          "name": "",
          "type": "address"
        }
      ],
      "stateMutability": "view",
      "type": "function"
    },
    {
      "inputs": [],
      "name": "paused",
      "outputs": [
        {
          "internalType": "bool",
          "name": "",
          "type": "bool"
        }
      ],
      "stateMutability": "view",
      "type": "function"
    },
    {
      "inputs": [],
      "name": "renounceOwnership",
      "outputs": [],
      "stateMutability": "nonpayable",
      "type": "function"
    },
    {
      "inputs": [],
      "name": "revealed",
      "outputs": [
        {
          "internalType": "bool",
          "name": "",
          "type": "bool"
        }
      ],
      "stateMutability": "view",
      "type": "function"
    },
    {
      "inputs": [
        {
          "internalType": "address",
          "name": "from",
          "type": "address"
        },
        {
          "internalType": "address",
          "name": "to",
          "type": "address"
        },
        {
          "internalType": "uint256",
          "name": "tokenId",
          "type": "uint256"
        }
      ],
      "name": "safeTransferFrom",
      "outputs": [],
      "stateMutability": "nonpayable",
      "type": "function"
    },
    {
      "inputs": [
        {
          "internalType": "address",
          "name": "from",
          "type": "address"
        },
        {
          "internalType": "address",
          "name": "to",
          "type": "address"
        },
        {
          "internalType": "uint256",
          "name": "tokenId",
          "type": "uint256"
        },
        {
          "internalType": "bytes",
          "name": "_data",
          "type": "bytes"
        }
      ],
      "name": "safeTransferFrom",
      "outputs": [],
      "stateMutability": "nonpayable",
      "type": "function"
    },
    {
      "inputs": [
        {
          "internalType": "address",
          "name": "operator",
          "type": "address"
        },
        {
          "internalType": "bool",
          "name": "approved",
          "type": "bool"
        }
      ],
      "name": "setApprovalForAll",
      "outputs": [],
      "stateMutability": "nonpayable",
      "type": "function"
    },
    {
      "inputs": [
        {
          "internalType": "bytes4",
          "name": "interfaceId",
          "type": "bytes4"
        }
      ],
      "name": "supportsInterface",
      "outputs": [
        {
          "internalType": "bool",
          "name": "",
          "type": "bool"
        }
      ],
      "stateMutability": "view",
      "type": "function"
    },
    {
      "inputs": [],
      "name": "symbol",
      "outputs": [
        {
          "internalType": "string",
          "name": "",
          "type": "string"
        }
      ],
      "stateMutability": "view",
      "type": "function"
    },
    {
      "inputs": [],
      "name": "totalSupply",
      "outputs": [
        {
          "internalType": "uint256",
          "name": "",
          "type": "uint256"
        }
      ],
      "stateMutability": "view",
      "type": "function"
    },
    {
      "inputs": [
        {
          "internalType": "address",
          "name": "from",
          "type": "address"
        },
        {
          "internalType": "address",
          "name": "to",
          "type": "address"
        },
        {
          "internalType": "uint256",
          "name": "tokenId",
          "type": "uint256"
        }
      ],
      "name": "transferFrom",
      "outputs": [],
      "stateMutability": "nonpayable",
      "type": "function"
    },
    {
      "inputs": [
        {
          "internalType": "address",
          "name": "newOwner",
          "type": "address"
        }
      ],
      "name": "transferOwnership",
      "outputs": [],
      "stateMutability": "nonpayable",
      "type": "function"
    },
    {
      "inputs": [
        {
          "internalType": "uint256",
          "name": "_mintAmount",
          "type": "uint256"
        }
      ],
      "name": "mint",
      "outputs": [],
      "stateMutability": "payable",
      "type": "function"
    },
    {
      "inputs": [
        {
          "internalType": "uint256",
          "name": "_mintAmount",
          "type": "uint256"
        },
        {
          "internalType": "address",
          "name": "_receiver",
          "type": "address"
        }
      ],
      "name": "mintForAddress",
      "outputs": [],
      "stateMutability": "nonpayable",
      "type": "function"
    },
    {
      "inputs": [
        {
          "internalType": "bool",
          "name": "_state",
          "type": "bool"
        }
      ],
      "name": "setRevealed",
      "outputs": [],
      "stateMutability": "nonpayable",
      "type": "function"
    },
    {
      "inputs": [
        {
          "internalType": "uint256",
          "name": "_cost",
          "type": "uint256"
        }
      ],
      "name": "setCost",
      "outputs": [],
      "stateMutability": "nonpayable",
      "type": "function"
    },
    {
      "inputs": [
        {
          "internalType": "uint256",
          "name": "_maxMintAmountPerTx",
          "type": "uint256"
        }
      ],
      "name": "setMaxMintAmountPerTx",
      "outputs": [],
      "stateMutability": "nonpayable",
      "type": "function"
    },
    {
      "inputs": [
        {
          "internalType": "bool",
          "name": "_state",
          "type": "bool"
        }
      ],
      "name": "setPaused",
      "outputs": [],
      "stateMutability": "nonpayable",
      "type": "function"
    },
    {
      "inputs": [],
      "name": "withdraw",
      "outputs": [],
      "stateMutability": "nonpayable",
      "type": "function"
    },
    {
      "inputs": [
        {
          "internalType": "string",
          "name": "_hiddenMetadataUri",
          "type": "string"
        }
      ],
      "name": "setHiddenMetadataUri",
      "outputs": [],
      "stateMutability": "nonpayable",
      "type": "function"
    },
    {
      "inputs": [
        {
          "internalType": "string",
          "name": "baseURI",
          "type": "string"
        }
      ],
      "name": "setBaseURI",
      "outputs": [],
      "stateMutability": "nonpayable",
      "type": "function"
    },
    {
      "inputs": [
        {
          "internalType": "uint256",
          "name": "_tokenId",
          "type": "uint256"
        }
      ],
      "name": "tokenURI",
      "outputs": [
        {
          "internalType": "string",
          "name": "",
          "type": "string"
        }
      ],
      "stateMutability": "view",
      "type": "function"
    }
  ],
  "bytecode": "0x6080604052665fec5b60ef8000600c55611388600d556014600e55600f805460ff191660011790553480156200003457600080fd5b50604051620026fc380380620026fc8339810160408190526200005791620005bc565b6040518060400160405280600481526020016359756d6960e01b8152506040518060400160405280600481526020016359554d4960e01b8152508160029080519060200190620000a9929190620004d1565b508051620000bf906003906020840190620004d1565b5050600160005550620000d233620000f8565b60016009819055620000e69033906200014a565b620000f18162000170565b506200073a565b600880546001600160a01b038381166001600160a01b0319831681179093556040519116919082907f8be0079c531659141344cd1fd0a4f28419497f9722a3daafe3b4186f6b6457e090600090a35050565b6200016c828260405180602001604052806000815250620001e460201b60201c565b5050565b6008546001600160a01b03163314620001cf5760405162461bcd60e51b815260206004820181905260248201527f4f776e61626c653a2063616c6c6572206973206e6f7420746865206f776e6572604482015260640160405180910390fd5b80516200016c90600b906020840190620004d1565b620001f38383836001620001f8565b505050565b6000546001600160a01b0385166200022257604051622e076360e81b815260040160405180910390fd5b83620002415760405163b562e8dd60e01b815260040160405180910390fd5b6001600160a01b038516600081815260056020908152604080832080546001600160801b031981166001600160401b038083168c018116918217680100000000000000006001600160401b031990941690921783900481168c01811690920217909155858452600490925290912080546001600160e01b031916909217600160a01b429092169190910217905580808501838015620002fa5750620002fa876001600160a01b0316620003c160201b620010a81760201c565b156200037a575b60405182906001600160a01b03891690600090600080516020620026dc833981519152908290a460018201916200033e90600090899088620003d0565b6200035c576040516368d2bf6b60e11b815260040160405180910390fd5b80821415620003015782600054146200037457600080fd5b620003b0565b5b6040516001830192906001600160a01b03891690600090600080516020620026dc833981519152908290a4808214156200037b575b506000555050505050565b50505050565b6001600160a01b03163b151590565b604051630a85bd0160e11b81526000906001600160a01b0385169063150b7a02906200040790339089908890889060040162000674565b602060405180830381600087803b1580156200042257600080fd5b505af192505050801562000455575060408051601f3d908101601f191682019092526200045291810190620006ca565b60015b620004b4573d80801562000486576040519150601f19603f3d011682016040523d82523d6000602084013e6200048b565b606091505b508051620004ac576040516368d2bf6b60e11b815260040160405180910390fd5b805181602001fd5b6001600160e01b031916630a85bd0160e11b149050949350505050565b828054620004df90620006fd565b90600052602060002090601f0160209004810192826200050357600085556200054e565b82601f106200051e57805160ff19168380011785556200054e565b828001600101855582156200054e579182015b828111156200054e57825182559160200191906001019062000531565b506200055c92915062000560565b5090565b5b808211156200055c576000815560010162000561565b634e487b7160e01b600052604160045260246000fd5b60005b83811015620005aa57818101518382015260200162000590565b83811115620003bb5750506000910152565b600060208284031215620005cf57600080fd5b81516001600160401b0380821115620005e757600080fd5b818401915084601f830112620005fc57600080fd5b81518181111562000611576200061162000577565b604051601f8201601f19908116603f011681019083821181831017156200063c576200063c62000577565b816040528281528760208487010111156200065657600080fd5b620006698360208301602088016200058d565b979650505050505050565b600060018060a01b038087168352808616602084015250836040830152608060608301528251806080840152620006b38160a08501602087016200058d565b601f01601f19169190910160a00195945050505050565b600060208284031215620006dd57600080fd5b81516001600160e01b031981168114620006f657600080fd5b9392505050565b600181811c908216806200071257607f821691505b602082108114156200073457634e487b7160e01b600052602260045260246000fd5b50919050565b611f92806200074a6000396000f3fe6080604052600436106101ee5760003560e01c806370a082311161010d578063b071401b116100a0578063d5abeb011161006f578063d5abeb011461054e578063e0a8085314610564578063e985e9c514610584578063efbd73f4146105cd578063f2fde38b146105ed57600080fd5b8063b071401b146104d9578063b88d4fde146104f9578063c87b56dd14610519578063cfc86f7b1461053957600080fd5b806395d89b41116100dc57806395d89b411461047c578063a0712d6814610491578063a22cb465146104a4578063a45ba8e7146104c457600080fd5b806370a0823114610413578063715018a6146104335780638da5cb5b1461044857806394354fd01461046657600080fd5b80633ccfd60b116101855780635183022711610154578063518302271461039a57806355f804b3146103b95780635c975abb146103d95780636352211e146103f357600080fd5b80633ccfd60b1461032557806342842e0e1461033a57806344a0d68a1461035a5780634fdd43cb1461037a57600080fd5b806313faede6116101c157806313faede6146102a457806316c38b3c146102c857806318160ddd146102e857806323b872dd1461030557600080fd5b806301ffc9a7146101f357806306fdde0314610228578063081812fc1461024a578063095ea7b314610282575b600080fd5b3480156101ff57600080fd5b5061021361020e3660046119d2565b61060d565b60405190151581526020015b60405180910390f35b34801561023457600080fd5b5061023d61065f565b60405161021f9190611a4e565b34801561025657600080fd5b5061026a610265366004611a61565b6106f1565b6040516001600160a01b03909116815260200161021f565b34801561028e57600080fd5b506102a261029d366004611a91565b610735565b005b3480156102b057600080fd5b506102ba600c5481565b60405190815260200161021f565b3480156102d457600080fd5b506102a26102e3366004611acb565b6107c3565b3480156102f457600080fd5b5060015460005403600019016102ba565b34801561031157600080fd5b506102a2610320366004611ae6565b610809565b34801561033157600080fd5b506102a2610814565b34801561034657600080fd5b506102a2610355366004611ae6565b61098d565b34801561036657600080fd5b506102a2610375366004611a61565b6109a8565b34801561038657600080fd5b506102a2610395366004611bae565b6109d7565b3480156103a657600080fd5b50600f5461021390610100900460ff1681565b3480156103c557600080fd5b506102a26103d4366004611bf7565b610a18565b3480156103e557600080fd5b50600f546102139060ff1681565b3480156103ff57600080fd5b5061026a61040e366004611a61565b610a4e565b34801561041f57600080fd5b506102ba61042e366004611c69565b610a60565b34801561043f57600080fd5b506102a2610aaf565b34801561045457600080fd5b506008546001600160a01b031661026a565b34801561047257600080fd5b506102ba600e5481565b34801561048857600080fd5b5061023d610ae5565b6102a261049f366004611a61565b610af4565b3480156104b057600080fd5b506102a26104bf366004611c84565b610cb8565b3480156104d057600080fd5b5061023d610d4e565b3480156104e557600080fd5b506102a26104f4366004611a61565b610ddc565b34801561050557600080fd5b506102a2610514366004611cb7565b610e0b565b34801561052557600080fd5b5061023d610534366004611a61565b610e5c565b34801561054557600080fd5b5061023d610f88565b34801561055a57600080fd5b506102ba600d5481565b34801561057057600080fd5b506102a261057f366004611acb565b610f95565b34801561059057600080fd5b5061021361059f366004611d33565b6001600160a01b03918216600090815260076020908152604080832093909416825291909152205460ff1690565b3480156105d957600080fd5b506102a26105e8366004611d5d565b610fd9565b3480156105f957600080fd5b506102a2610608366004611c69565b61100d565b60006001600160e01b031982166380ac58cd60e01b148061063e57506001600160e01b03198216635b5e139f60e01b145b8061065957506301ffc9a760e01b6001600160e01b03198316145b92915050565b60606002805461066e90611d80565b80601f016020809104026020016040519081016040528092919081815260200182805461069a90611d80565b80156106e75780601f106106bc576101008083540402835291602001916106e7565b820191906000526020600020905b8154815290600101906020018083116106ca57829003601f168201915b5050505050905090565b60006106fc826110b7565b610719576040516333d1c03960e21b815260040160405180910390fd5b506000908152600660205260409020546001600160a01b031690565b600061074082610a4e565b9050806001600160a01b0316836001600160a01b031614156107755760405163250fdee360e21b815260040160405180910390fd5b336001600160a01b038216148015906107955750610793813361059f565b155b156107b3576040516367d9dca160e11b815260040160405180910390fd5b6107be8383836110f0565b505050565b6008546001600160a01b031633146107f65760405162461bcd60e51b81526004016107ed90611dbb565b60405180910390fd5b600f805460ff1916911515919091179055565b6107be83838361114c565b6008546001600160a01b0316331461083e5760405162461bcd60e51b81526004016107ed90611dbb565b600260095414156108915760405162461bcd60e51b815260206004820152601f60248201527f5265656e7472616e637947756172643a207265656e7472616e742063616c6c0060448201526064016107ed565b6002600955600073bb74a6453477ae495ed35a4e5112dd5fe5314f0b60646108ba476019611e06565b6108c49190611e3b565b604051600081818185875af1925050503d8060008114610900576040519150601f19603f3d011682016040523d82523d6000602084013e610905565b606091505b505090508061091357600080fd5b60006109276008546001600160a01b031690565b6001600160a01b03164760405160006040518083038185875af1925050503d8060008114610971576040519150601f19603f3d011682016040523d82523d6000602084013e610976565b606091505b505090508061098457600080fd5b50506001600955565b6107be83838360405180602001604052806000815250610e0b565b6008546001600160a01b031633146109d25760405162461bcd60e51b81526004016107ed90611dbb565b600c55565b6008546001600160a01b03163314610a015760405162461bcd60e51b81526004016107ed90611dbb565b8051610a1490600b9060208401906118af565b5050565b6008546001600160a01b03163314610a425760405162461bcd60e51b81526004016107ed90611dbb565b6107be600a8383611933565b6000610a598261133c565b5192915050565b60006001600160a01b038216610a89576040516323d3ad8160e21b815260040160405180910390fd5b506001600160a01b031660009081526005602052604090205467ffffffffffffffff1690565b6008546001600160a01b03163314610ad95760405162461bcd60e51b81526004016107ed90611dbb565b610ae36000611465565b565b60606003805461066e90611d80565b60026009541415610b475760405162461bcd60e51b815260206004820152601f60248201527f5265656e7472616e637947756172643a207265656e7472616e742063616c6c0060448201526064016107ed565b60026009558015801590610b5d5750600e548111155b610ba05760405162461bcd60e51b8152602060048201526014602482015273496e76616c6964206d696e7420616d6f756e742160601b60448201526064016107ed565b600d546001546000548391900360001901610bbb9190611e4f565b1115610c005760405162461bcd60e51b81526020600482015260146024820152734d617820737570706c792065786365656465642160601b60448201526064016107ed565b600f5460ff1615610c535760405162461bcd60e51b815260206004820152601760248201527f54686520636f6e7472616374206973207061757365642100000000000000000060448201526064016107ed565b80600c54610c619190611e06565b341015610ca65760405162461bcd60e51b8152602060048201526013602482015272496e73756666696369656e742066756e64732160681b60448201526064016107ed565b610cb033826114b7565b506001600955565b6001600160a01b038216331415610ce25760405163b06307db60e01b815260040160405180910390fd5b3360008181526007602090815260408083206001600160a01b03871680855290835292819020805460ff191686151590811790915590519081529192917f17307eab39ab6107e8899845ad3d59bd9653f200f220920489ca2b5937696c31910160405180910390a35050565b600b8054610d5b90611d80565b80601f0160208091040260200160405190810160405280929190818152602001828054610d8790611d80565b8015610dd45780601f10610da957610100808354040283529160200191610dd4565b820191906000526020600020905b815481529060010190602001808311610db757829003601f168201915b505050505081565b6008546001600160a01b03163314610e065760405162461bcd60e51b81526004016107ed90611dbb565b600e55565b610e1684848461114c565b6001600160a01b0383163b15158015610e385750610e36848484846114d1565b155b15610e56576040516368d2bf6b60e11b815260040160405180910390fd5b50505050565b6060610e67826110b7565b610ea95760405162461bcd60e51b815260206004820152601360248201527255524920646f6573206e6f742065786973742160681b60448201526064016107ed565b600f54610100900460ff1615610ef157610ec16115c9565b610eca836115d8565b604051602001610edb929190611e67565b6040516020818303038152906040529050919050565b600b8054610efe90611d80565b80601f0160208091040260200160405190810160405280929190818152602001828054610f2a90611d80565b8015610f775780601f10610f4c57610100808354040283529160200191610f77565b820191906000526020600020905b815481529060010190602001808311610f5a57829003601f168201915b50505050509050919050565b919050565b600a8054610d5b90611d80565b6008546001600160a01b03163314610fbf5760405162461bcd60e51b81526004016107ed90611dbb565b600f80549115156101000261ff0019909216919091179055565b6008546001600160a01b031633146110035760405162461bcd60e51b81526004016107ed90611dbb565b610a1481836114b7565b6008546001600160a01b031633146110375760405162461bcd60e51b81526004016107ed90611dbb565b6001600160a01b03811661109c5760405162461bcd60e51b815260206004820152602660248201527f4f776e61626c653a206e6577206f776e657220697320746865207a65726f206160448201526564647265737360d01b60648201526084016107ed565b6110a581611465565b50565b6001600160a01b03163b151590565b6000816001111580156110cb575060005482105b8015610659575050600090815260046020526040902054600160e01b900460ff161590565b60008281526006602052604080822080546001600160a01b0319166001600160a01b0387811691821790925591518593918516917f8c5be1e5ebec7d5bd14f71427d1e84f3dd0314c0f7b2291e5b200ac8c7c3b92591a4505050565b60006111578261133c565b9050836001600160a01b031681600001516001600160a01b03161461118e5760405162a1148160e81b815260040160405180910390fd5b6000336001600160a01b03861614806111ac57506111ac853361059f565b806111c75750336111bc846106f1565b6001600160a01b0316145b9050806111e757604051632ce44b5f60e11b815260040160405180910390fd5b6001600160a01b03841661120e57604051633a954ecd60e21b815260040160405180910390fd5b61121a600084876110f0565b6001600160a01b038581166000908152600560209081526040808320805467ffffffffffffffff1980821667ffffffffffffffff92831660001901831617909255898616808652838620805493841693831660019081018416949094179055898652600490945282852080546001600160e01b031916909417600160a01b429092169190910217835587018084529220805491939091166112f05760005482146112f0578054602086015167ffffffffffffffff16600160a01b026001600160e01b03199091166001600160a01b038a16171781555b50505082846001600160a01b0316866001600160a01b03167fddf252ad1be2c89b69c2b068fc378daa952ba7f163c4a11628f55a4df523b3ef60405160405180910390a45b5050505050565b6040805160608101825260008082526020820181905291810191909152818060011115801561136c575060005481105b1561144c57600081815260046020908152604091829020825160608101845290546001600160a01b0381168252600160a01b810467ffffffffffffffff1692820192909252600160e01b90910460ff1615159181018290529061144a5780516001600160a01b0316156113e0579392505050565b5060001901600081815260046020908152604091829020825160608101845290546001600160a01b038116808352600160a01b820467ffffffffffffffff1693830193909352600160e01b900460ff1615159281019290925215611445579392505050565b6113e0565b505b604051636f96cda160e11b815260040160405180910390fd5b600880546001600160a01b038381166001600160a01b0319831681179093556040519116919082907f8be0079c531659141344cd1fd0a4f28419497f9722a3daafe3b4186f6b6457e090600090a35050565b610a148282604051806020016040528060008152506116d6565b604051630a85bd0160e11b81526000906001600160a01b0385169063150b7a0290611506903390899088908890600401611ea6565b602060405180830381600087803b15801561152057600080fd5b505af1925050508015611550575060408051601f3d908101601f1916820190925261154d91810190611ee3565b60015b6115ab573d80801561157e576040519150601f19603f3d011682016040523d82523d6000602084013e611583565b606091505b5080516115a3576040516368d2bf6b60e11b815260040160405180910390fd5b805181602001fd5b6001600160e01b031916630a85bd0160e11b1490505b949350505050565b6060600a805461066e90611d80565b6060816115fc5750506040805180820190915260018152600360fc1b602082015290565b8160005b8115611626578061161081611f00565b915061161f9050600a83611e3b565b9150611600565b60008167ffffffffffffffff81111561164157611641611b22565b6040519080825280601f01601f19166020018201604052801561166b576020820181803683370190505b5090505b84156115c157611680600183611f1b565b915061168d600a86611f32565b611698906030611e4f565b60f81b8183815181106116ad576116ad611f46565b60200101906001600160f81b031916908160001a9053506116cf600a86611e3b565b945061166f565b6107be83838360016000546001600160a01b03851661170757604051622e076360e81b815260040160405180910390fd5b836117255760405163b562e8dd60e01b815260040160405180910390fd5b6001600160a01b038516600081815260056020908152604080832080546fffffffffffffffffffffffffffffffff19811667ffffffffffffffff8083168c0181169182176801000000000000000067ffffffffffffffff1990941690921783900481168c01811690920217909155858452600490925290912080546001600160e01b031916909217600160a01b4290921691909102179055808085018380156117d757506001600160a01b0387163b15155b15611860575b60405182906001600160a01b038916906000907fddf252ad1be2c89b69c2b068fc378daa952ba7f163c4a11628f55a4df523b3ef908290a461182860008884806001019550886114d1565b611845576040516368d2bf6b60e11b815260040160405180910390fd5b808214156117dd57826000541461185b57600080fd5b6118a6565b5b6040516001830192906001600160a01b038916906000907fddf252ad1be2c89b69c2b068fc378daa952ba7f163c4a11628f55a4df523b3ef908290a480821415611861575b50600055611335565b8280546118bb90611d80565b90600052602060002090601f0160209004810192826118dd5760008555611923565b82601f106118f657805160ff1916838001178555611923565b82800160010185558215611923579182015b82811115611923578251825591602001919060010190611908565b5061192f9291506119a7565b5090565b82805461193f90611d80565b90600052602060002090601f0160209004810192826119615760008555611923565b82601f1061197a5782800160ff19823516178555611923565b82800160010185558215611923579182015b8281111561192357823582559160200191906001019061198c565b5b8082111561192f57600081556001016119a8565b6001600160e01b0319811681146110a557600080fd5b6000602082840312156119e457600080fd5b81356119ef816119bc565b9392505050565b60005b83811015611a115781810151838201526020016119f9565b83811115610e565750506000910152565b60008151808452611a3a8160208601602086016119f6565b601f01601f19169290920160200192915050565b6020815260006119ef6020830184611a22565b600060208284031215611a7357600080fd5b5035919050565b80356001600160a01b0381168114610f8357600080fd5b60008060408385031215611aa457600080fd5b611aad83611a7a565b946020939093013593505050565b80358015158114610f8357600080fd5b600060208284031215611add57600080fd5b6119ef82611abb565b600080600060608486031215611afb57600080fd5b611b0484611a7a565b9250611b1260208501611a7a565b9150604084013590509250925092565b634e487b7160e01b600052604160045260246000fd5b600067ffffffffffffffff80841115611b5357611b53611b22565b604051601f8501601f19908116603f01168101908282118183101715611b7b57611b7b611b22565b81604052809350858152868686011115611b9457600080fd5b858560208301376000602087830101525050509392505050565b600060208284031215611bc057600080fd5b813567ffffffffffffffff811115611bd757600080fd5b8201601f81018413611be857600080fd5b6115c184823560208401611b38565b60008060208385031215611c0a57600080fd5b823567ffffffffffffffff80821115611c2257600080fd5b818501915085601f830112611c3657600080fd5b813581811115611c4557600080fd5b866020828501011115611c5757600080fd5b60209290920196919550909350505050565b600060208284031215611c7b57600080fd5b6119ef82611a7a565b60008060408385031215611c9757600080fd5b611ca083611a7a565b9150611cae60208401611abb565b90509250929050565b60008060008060808587031215611ccd57600080fd5b611cd685611a7a565b9350611ce460208601611a7a565b925060408501359150606085013567ffffffffffffffff811115611d0757600080fd5b8501601f81018713611d1857600080fd5b611d2787823560208401611b38565b91505092959194509250565b60008060408385031215611d4657600080fd5b611d4f83611a7a565b9150611cae60208401611a7a565b60008060408385031215611d7057600080fd5b82359150611cae60208401611a7a565b600181811c90821680611d9457607f821691505b60208210811415611db557634e487b7160e01b600052602260045260246000fd5b50919050565b6020808252818101527f4f776e61626c653a2063616c6c6572206973206e6f7420746865206f776e6572604082015260600190565b634e487b7160e01b600052601160045260246000fd5b6000816000190483118215151615611e2057611e20611df0565b500290565b634e487b7160e01b600052601260045260246000fd5b600082611e4a57611e4a611e25565b500490565b60008219821115611e6257611e62611df0565b500190565b60008351611e798184602088016119f6565b835190830190611e8d8183602088016119f6565b64173539b7b760d91b9101908152600501949350505050565b6001600160a01b0385811682528416602082015260408101839052608060608201819052600090611ed990830184611a22565b9695505050505050565b600060208284031215611ef557600080fd5b81516119ef816119bc565b6000600019821415611f1457611f14611df0565b5060010190565b600082821015611f2d57611f2d611df0565b500390565b600082611f4157611f41611e25565b500690565b634e487b7160e01b600052603260045260246000fdfea2646970667358221220f802aadfc836128d364a70a55d3c1cf26fcf93490a77a54194c327ac4cb3733364736f6c63430008090033ddf252ad1be2c89b69c2b068fc378daa952ba7f163c4a11628f55a4df523b3ef",
  "immutableReferences": {},
  "source": "// SPDX-License-Identifier: MIT\r\n// /////////////////////////////////////////////////////////////////////////\r\n//                                                                        //\r\n//          _/                      _/                                    //\r\n//         _/    _/_/_/    _/_/_/  _/  _/      _/_/_/    _/_/    _/_/_/   //\r\n//        _/  _/    _/  _/        _/_/      _/_/      _/    _/  _/    _/  //\r\n// _/    _/  _/    _/  _/        _/  _/        _/_/  _/    _/  _/    _/   //\r\n//  _/_/      _/_/_/    _/_/_/  _/    _/  _/_/_/      _/_/    _/    _/    //\r\n//                                                                        //\r\n//                                                                        //\r\n////////////////////////////////////////////////////////////////////////////\r\npragma solidity >=0.8.0 <0.9.0;\r\n\r\nimport \"./ERC721A.sol\";\r\nimport \"@openzeppelin/contracts/access/Ownable.sol\";\r\nimport \"@openzeppelin/contracts/security/ReentrancyGuard.sol\";\r\nimport \"@openzeppelin/contracts/utils/Strings.sol\";\r\n\r\ncontract Yumi is ERC721A, Ownable, ReentrancyGuard {\r\n    using Strings for uint256;\r\n\r\n    string public _baseTokenURI;\r\n    string public hiddenMetadataUri;\r\n\r\n    uint256 public cost = 0.027 ether;\r\n    uint256 public maxSupply = 5000;\r\n    uint256 public maxMintAmountPerTx = 20;\r\n\r\n    bool public paused = true;\r\n    bool public revealed;\r\n\r\n    constructor(string memory _hiddenMetadataUri) ERC721A(\"Yumi\", \"YUMI\") {\r\n        _safeMint(msg.sender, 1);\r\n        setHiddenMetadataUri(_hiddenMetadataUri);\r\n    }\r\n\r\n    function mint(uint256 _mintAmount) public payable nonReentrant {\r\n        require(\r\n            _mintAmount > 0 && _mintAmount <= maxMintAmountPerTx,\r\n            \"Invalid mint amount!\"\r\n        );\r\n        require(\r\n            totalSupply() + _mintAmount <= maxSupply,\r\n            \"Max supply exceeded!\"\r\n        );\r\n        require(!paused, \"The contract is paused!\");\r\n        require(msg.value >= cost * _mintAmount, \"Insufficient funds!\");\r\n\r\n        _safeMint(_msgSender(), _mintAmount);\r\n    }\r\n\r\n    function mintForAddress(uint256 _mintAmount, address _receiver)\r\n        public\r\n        onlyOwner\r\n    {\r\n        _safeMint(_receiver, _mintAmount);\r\n    }\r\n\r\n    function _startTokenId() internal view virtual override returns (uint256) {\r\n        return 1;\r\n    }\r\n\r\n    function setRevealed(bool _state) public onlyOwner {\r\n        revealed = _state;\r\n    }\r\n\r\n    function setCost(uint256 _cost) public onlyOwner {\r\n        cost = _cost;\r\n    }\r\n\r\n    function setMaxMintAmountPerTx(uint256 _maxMintAmountPerTx)\r\n        public\r\n        onlyOwner\r\n    {\r\n        maxMintAmountPerTx = _maxMintAmountPerTx;\r\n    }\r\n\r\n    function setPaused(bool _state) public onlyOwner {\r\n        paused = _state;\r\n    }\r\n\r\n    function withdraw() public onlyOwner nonReentrant {\r\n        (bool hs, ) = payable(0xBb74a6453477Ae495ED35A4E5112DD5Fe5314F0b).call{\r\n            value: (address(this).balance * 25) / 100\r\n        }(\"\");\r\n        require(hs);\r\n        (bool os, ) = payable(owner()).call{value: address(this).balance}(\"\");\r\n        require(os);\r\n    }\r\n\r\n    // METADATA HANDLING\r\n\r\n    function setHiddenMetadataUri(string memory _hiddenMetadataUri)\r\n        public\r\n        onlyOwner\r\n    {\r\n        hiddenMetadataUri = _hiddenMetadataUri;\r\n    }\r\n\r\n    function setBaseURI(string calldata baseURI) public onlyOwner {\r\n        _baseTokenURI = baseURI;\r\n    }\r\n\r\n    function _baseURI() internal view virtual override returns (string memory) {\r\n        return _baseTokenURI;\r\n    }\r\n\r\n    function tokenURI(uint256 _tokenId)\r\n        public\r\n        view\r\n        virtual\r\n        override\r\n        returns (string memory)\r\n    {\r\n        require(_exists(_tokenId), \"URI does not exist!\");\r\n\r\n        if (revealed) {\r\n            return\r\n                string(\r\n                    abi.encodePacked(_baseURI(), _tokenId.toString(), \".json\")\r\n                );\r\n        } else {\r\n            return hiddenMetadataUri;\r\n        }\r\n    }\r\n}\r\n",
  "sourcePath": "E:\\02_Practice\\03_Learning\\NFT minting test project\\ERC 721A\\contracts\\Yumi.sol",
  "compiler": {
    "name": "solc",
    "version": "0.8.9+commit.e5eed63a.Emscripten.clang"
  },
  "schemaVersion": "3.4.4",
  "updatedAt": "2022-04-27T14:49:12.169Z",
  "devdoc": {
    "kind": "dev",
    "methods": {
      "approve(address,uint256)": {
        "details": "See {IERC721-approve}."
      },
      "balanceOf(address)": {
        "details": "See {IERC721-balanceOf}."
      },
      "getApproved(uint256)": {
        "details": "See {IERC721-getApproved}."
      },
      "isApprovedForAll(address,address)": {
        "details": "See {IERC721-isApprovedForAll}."
      },
      "name()": {
        "details": "See {IERC721Metadata-name}."
      },
      "owner()": {
        "details": "Returns the address of the current owner."
      },
      "ownerOf(uint256)": {
        "details": "See {IERC721-ownerOf}."
      },
      "renounceOwnership()": {
        "details": "Leaves the contract without owner. It will not be possible to call `onlyOwner` functions anymore. Can only be called by the current owner. NOTE: Renouncing ownership will leave the contract without an owner, thereby removing any functionality that is only available to the owner."
      },
      "safeTransferFrom(address,address,uint256)": {
        "details": "See {IERC721-safeTransferFrom}."
      },
      "safeTransferFrom(address,address,uint256,bytes)": {
        "details": "See {IERC721-safeTransferFrom}."
      },
      "setApprovalForAll(address,bool)": {
        "details": "See {IERC721-setApprovalForAll}."
      },
      "supportsInterface(bytes4)": {
        "details": "See {IERC165-supportsInterface}."
      },
      "symbol()": {
        "details": "See {IERC721Metadata-symbol}."
      },
      "totalSupply()": {
        "details": "Burned tokens are calculated here, use _totalMinted() if you want to count just minted tokens."
      },
      "transferFrom(address,address,uint256)": {
        "details": "See {IERC721-transferFrom}."
      },
      "transferOwnership(address)": {
        "details": "Transfers ownership of the contract to a new account (`newOwner`). Can only be called by the current owner."
      }
    },
    "version": 1
  },
  "userdoc": {
    "kind": "user",
    "methods": {},
    "version": 1
  }
}